{
  "_format": "hh-sol-artifact-1",
  "contractName": "NodeFlowEngine",
  "sourceName": "contracts/NodeFlowEngine.sol",
  "abi": [
    {
      "inputs": [
        {
          "internalType": "address",
          "name": "_firstUser",
          "type": "address"
        },
        {
          "internalType": "address",
          "name": "_feeReceiver",
          "type": "address"
        },
        {
          "internalType": "address",
          "name": "_rewardwallet",
          "type": "address"
        },
        {
          "internalType": "address",
          "name": "_owner",
          "type": "address"
        }
      ],
      "stateMutability": "nonpayable",
      "type": "constructor"
    },
    {
      "anonymous": false,
      "inputs": [
        {
          "indexed": true,
          "internalType": "uint256",
          "name": "addrType",
          "type": "uint256"
        },
        {
          "indexed": true,
          "internalType": "address",
          "name": "newAddress",
          "type": "address"
        },
        {
          "indexed": true,
          "internalType": "address",
          "name": "oldAddress",
          "type": "address"
        }
      ],
      "name": "AddressUpdated",
      "type": "event"
    },
    {
      "anonymous": false,
      "inputs": [
        {
          "indexed": true,
          "internalType": "uint256",
          "name": "layerType",
          "type": "uint256"
        },
        {
          "indexed": false,
          "internalType": "uint256",
          "name": "oldValue",
          "type": "uint256"
        },
        {
          "indexed": false,
          "internalType": "uint256",
          "name": "newValue",
          "type": "uint256"
        }
      ],
      "name": "LayersUpdated",
      "type": "event"
    },
    {
      "anonymous": false,
      "inputs": [
        {
          "indexed": true,
          "internalType": "address",
          "name": "newAdmin",
          "type": "address"
        }
      ],
      "name": "MatrixAdminUpdated",
      "type": "event"
    },
    {
      "anonymous": false,
      "inputs": [
        {
          "indexed": true,
          "internalType": "address",
          "name": "wallet",
          "type": "address"
        },
        {
          "indexed": true,
          "internalType": "uint256",
          "name": "nodeId",
          "type": "uint256"
        },
        {
          "indexed": true,
          "internalType": "uint256",
          "name": "sponsorId",
          "type": "uint256"
        },
        {
          "indexed": false,
          "internalType": "uint256",
          "name": "matrixParentId",
          "type": "uint256"
        }
      ],
      "name": "NodeCreated",
      "type": "event"
    },
    {
      "anonymous": false,
      "inputs": [
        {
          "indexed": true,
          "internalType": "address",
          "name": "newAdmin",
          "type": "address"
        }
      ],
      "name": "OracleAdminUpdated",
      "type": "event"
    },
    {
      "anonymous": false,
      "inputs": [
        {
          "indexed": true,
          "internalType": "address",
          "name": "feed",
          "type": "address"
        },
        {
          "indexed": false,
          "internalType": "uint256",
          "name": "time",
          "type": "uint256"
        }
      ],
      "name": "OracleError",
      "type": "event"
    },
    {
      "anonymous": false,
      "inputs": [
        {
          "indexed": false,
          "internalType": "uint256",
          "name": "newPrice",
          "type": "uint256"
        },
        {
          "indexed": false,
          "internalType": "uint256",
          "name": "time",
          "type": "uint256"
        }
      ],
      "name": "OraclePriceUpdated",
      "type": "event"
    },
    {
      "anonymous": false,
      "inputs": [
        {
          "indexed": true,
          "internalType": "address",
          "name": "previousOwner",
          "type": "address"
        },
        {
          "indexed": true,
          "internalType": "address",
          "name": "newOwner",
          "type": "address"
        }
      ],
      "name": "OwnershipTransferred",
      "type": "event"
    },
    {
      "anonymous": false,
      "inputs": [
        {
          "indexed": true,
          "internalType": "address",
          "name": "wallet",
          "type": "address"
        },
        {
          "indexed": true,
          "internalType": "uint256",
          "name": "nodeId",
          "type": "uint256"
        },
        {
          "indexed": false,
          "internalType": "uint256",
          "name": "fromId",
          "type": "uint256"
        },
        {
          "indexed": false,
          "internalType": "uint256",
          "name": "layer",
          "type": "uint256"
        },
        {
          "indexed": false,
          "internalType": "uint256",
          "name": "amount",
          "type": "uint256"
        },
        {
          "indexed": false,
          "internalType": "uint256",
          "name": "time",
          "type": "uint256"
        },
        {
          "indexed": false,
          "internalType": "bool",
          "name": "isMissed",
          "type": "bool"
        },
        {
          "indexed": false,
          "internalType": "uint256",
          "name": "rewardType",
          "type": "uint256"
        },
        {
          "indexed": false,
          "internalType": "uint256",
          "name": "tier",
          "type": "uint256"
        }
      ],
      "name": "RewardDistributed",
      "type": "event"
    },
    {
      "anonymous": false,
      "inputs": [
        {
          "indexed": true,
          "internalType": "address",
          "name": "recipient",
          "type": "address"
        },
        {
          "indexed": false,
          "internalType": "uint256",
          "name": "amount",
          "type": "uint256"
        }
      ],
      "name": "RewardPending",
      "type": "event"
    },
    {
      "anonymous": false,
      "inputs": [
        {
          "indexed": true,
          "internalType": "address",
          "name": "wallet",
          "type": "address"
        },
        {
          "indexed": true,
          "internalType": "uint256",
          "name": "nodeId",
          "type": "uint256"
        },
        {
          "indexed": false,
          "internalType": "uint256",
          "name": "tierId",
          "type": "uint256"
        }
      ],
      "name": "TierUnlocked",
      "type": "event"
    },
    {
      "anonymous": false,
      "inputs": [
        {
          "indexed": false,
          "internalType": "uint256",
          "name": "platformFees",
          "type": "uint256"
        },
        {
          "indexed": false,
          "internalType": "uint256",
          "name": "missedRewards",
          "type": "uint256"
        },
        {
          "indexed": false,
          "internalType": "uint256",
          "name": "total",
          "type": "uint256"
        }
      ],
      "name": "TreasurySwept",
      "type": "event"
    },
    {
      "inputs": [],
      "name": "bnbPrice",
      "outputs": [
        {
          "internalType": "uint256",
          "name": "",
          "type": "uint256"
        }
      ],
      "stateMutability": "view",
      "type": "function"
    },
    {
      "inputs": [
        {
          "internalType": "uint256",
          "name": "_userId",
          "type": "uint256"
        },
        {
          "internalType": "uint256",
          "name": "_levels",
          "type": "uint256"
        }
      ],
      "name": "canUpgrade",
      "outputs": [
        {
          "internalType": "bool",
          "name": "",
          "type": "bool"
        }
      ],
      "stateMutability": "view",
      "type": "function"
    },
    {
      "inputs": [
        {
          "internalType": "uint256",
          "name": "_sponsor",
          "type": "uint256"
        }
      ],
      "name": "createNode",
      "outputs": [],
      "stateMutability": "payable",
      "type": "function"
    },
    {
      "inputs": [],
      "name": "defaultRefer",
      "outputs": [
        {
          "internalType": "uint256",
          "name": "",
          "type": "uint256"
        }
      ],
      "stateMutability": "view",
      "type": "function"
    },
    {
      "inputs": [],
      "name": "getConfig",
      "outputs": [
        {
          "internalType": "uint256",
          "name": "_defaultRefer",
          "type": "uint256"
        },
        {
          "internalType": "uint256",
          "name": "_totalUsers",
          "type": "uint256"
        },
        {
          "internalType": "uint256",
          "name": "_maxLayers",
          "type": "uint256"
        },
        {
          "internalType": "uint256",
          "name": "_bnbPrice",
          "type": "uint256"
        },
        {
          "internalType": "uint256",
          "name": "_lastUpdate",
          "type": "uint256"
        },
        {
          "internalType": "address",
          "name": "_owner",
          "type": "address"
        },
        {
          "internalType": "address",
          "name": "_priceAdmin",
          "type": "address"
        },
        {
          "internalType": "address",
          "name": "_matrixAdmin",
          "type": "address"
        },
        {
          "internalType": "address",
          "name": "_feeReceiver",
          "type": "address"
        },
        {
          "internalType": "address",
          "name": "_rewardWallet",
          "type": "address"
        },
        {
          "internalType": "uint256",
          "name": "_maxAllowedPrice",
          "type": "uint256"
        },
        {
          "internalType": "uint256",
          "name": "_minAllowedPrice",
          "type": "uint256"
        }
      ],
      "stateMutability": "view",
      "type": "function"
    },
    {
      "inputs": [
        {
          "internalType": "uint256",
          "name": "_userId",
          "type": "uint256"
        }
      ],
      "name": "getDirectReferrals",
      "outputs": [
        {
          "internalType": "uint256",
          "name": "count",
          "type": "uint256"
        }
      ],
      "stateMutability": "view",
      "type": "function"
    },
    {
      "inputs": [
        {
          "internalType": "uint256",
          "name": "_nodeId",
          "type": "uint256"
        },
        {
          "internalType": "uint256",
          "name": "_length",
          "type": "uint256"
        }
      ],
      "name": "getIncome",
      "outputs": [
        {
          "components": [
            {
              "internalType": "uint256",
              "name": "id",
              "type": "uint256"
            },
            {
              "internalType": "uint256",
              "name": "layer",
              "type": "uint256"
            },
            {
              "internalType": "uint256",
              "name": "amount",
              "type": "uint256"
            },
            {
              "internalType": "uint256",
              "name": "time",
              "type": "uint256"
            },
            {
              "internalType": "bool",
              "name": "isMissed",
              "type": "bool"
            },
            {
              "internalType": "uint256",
              "name": "rewardType",
              "type": "uint256"
            },
            {
              "internalType": "uint256",
              "name": "tier",
              "type": "uint256"
            }
          ],
          "internalType": "struct INodeFlowEngine.RewardEvent[]",
          "name": "",
          "type": "tuple[]"
        }
      ],
      "stateMutability": "view",
      "type": "function"
    },
    {
      "inputs": [
        {
          "internalType": "uint256",
          "name": "_userId",
          "type": "uint256"
        }
      ],
      "name": "getIncomeBreakdown",
      "outputs": [
        {
          "internalType": "uint256",
          "name": "total",
          "type": "uint256"
        },
        {
          "internalType": "uint256",
          "name": "referral",
          "type": "uint256"
        },
        {
          "internalType": "uint256",
          "name": "tier",
          "type": "uint256"
        },
        {
          "internalType": "uint256",
          "name": "binary",
          "type": "uint256"
        },
        {
          "internalType": "uint256",
          "name": "direct",
          "type": "uint256"
        },
        {
          "internalType": "uint256",
          "name": "lost",
          "type": "uint256"
        }
      ],
      "stateMutability": "view",
      "type": "function"
    },
    {
      "inputs": [
        {
          "internalType": "uint256",
          "name": "_nodeId",
          "type": "uint256"
        }
      ],
      "name": "getMatrixDirect",
      "outputs": [
        {
          "internalType": "uint256[2]",
          "name": "_directs",
          "type": "uint256[2]"
        }
      ],
      "stateMutability": "view",
      "type": "function"
    },
    {
      "inputs": [
        {
          "internalType": "uint256",
          "name": "_userId",
          "type": "uint256"
        }
      ],
      "name": "getMatrixPosition",
      "outputs": [
        {
          "internalType": "uint256",
          "name": "uplineId",
          "type": "uint256"
        },
        {
          "internalType": "uint256",
          "name": "leftChild",
          "type": "uint256"
        },
        {
          "internalType": "uint256",
          "name": "rightChild",
          "type": "uint256"
        }
      ],
      "stateMutability": "view",
      "type": "function"
    },
    {
      "inputs": [
        {
          "internalType": "uint256",
          "name": "_nodeId",
          "type": "uint256"
        },
        {
          "internalType": "uint256",
          "name": "_layer",
          "type": "uint256"
        },
        {
          "internalType": "uint256",
          "name": "_startIndex",
          "type": "uint256"
        },
        {
          "internalType": "uint256",
          "name": "_num",
          "type": "uint256"
        }
      ],
      "name": "getMatrixUsers",
      "outputs": [
        {
          "components": [
            {
              "internalType": "address",
              "name": "wallet",
              "type": "address"
            },
            {
              "internalType": "uint256",
              "name": "nodeId",
              "type": "uint256"
            },
            {
              "internalType": "uint256",
              "name": "sponsor",
              "type": "uint256"
            },
            {
              "internalType": "uint256",
              "name": "matrixParent",
              "type": "uint256"
            },
            {
              "internalType": "uint256",
              "name": "joinedAt",
              "type": "uint256"
            },
            {
              "internalType": "uint256",
              "name": "tier",
              "type": "uint256"
            },
            {
              "internalType": "uint256",
              "name": "directNodes",
              "type": "uint256"
            },
            {
              "internalType": "uint256",
              "name": "totalMatrixNodes",
              "type": "uint256"
            },
            {
              "internalType": "uint256",
              "name": "totalContribution",
              "type": "uint256"
            },
            {
              "internalType": "uint256[18]",
              "name": "sponsorTierRanks",
              "type": "uint256[18]"
            }
          ],
          "internalType": "struct INodeFlowEngine.Node[]",
          "name": "",
          "type": "tuple[]"
        }
      ],
      "stateMutability": "view",
      "type": "function"
    },
    {
      "inputs": [
        {
          "internalType": "uint256",
          "name": "_nodeId",
          "type": "uint256"
        },
        {
          "internalType": "uint256",
          "name": "_layer",
          "type": "uint256"
        },
        {
          "internalType": "uint256",
          "name": "_num",
          "type": "uint256"
        }
      ],
      "name": "getNetworkNodes",
      "outputs": [
        {
          "components": [
            {
              "internalType": "address",
              "name": "wallet",
              "type": "address"
            },
            {
              "internalType": "uint256",
              "name": "nodeId",
              "type": "uint256"
            },
            {
              "internalType": "uint256",
              "name": "sponsor",
              "type": "uint256"
            },
            {
              "internalType": "uint256",
              "name": "matrixParent",
              "type": "uint256"
            },
            {
              "internalType": "uint256",
              "name": "joinedAt",
              "type": "uint256"
            },
            {
              "internalType": "uint256",
              "name": "tier",
              "type": "uint256"
            },
            {
              "internalType": "uint256",
              "name": "directNodes",
              "type": "uint256"
            },
            {
              "internalType": "uint256",
              "name": "totalMatrixNodes",
              "type": "uint256"
            },
            {
              "internalType": "uint256",
              "name": "totalContribution",
              "type": "uint256"
            },
            {
              "internalType": "uint256[18]",
              "name": "sponsorTierRanks",
              "type": "uint256[18]"
            }
          ],
          "internalType": "struct INodeFlowEngine.Node[]",
          "name": "",
          "type": "tuple[]"
        }
      ],
      "stateMutability": "view",
      "type": "function"
    },
    {
      "inputs": [
        {
          "internalType": "address",
          "name": "_addr",
          "type": "address"
        }
      ],
      "name": "getNodeByAddress",
      "outputs": [
        {
          "components": [
            {
              "internalType": "address",
              "name": "wallet",
              "type": "address"
            },
            {
              "internalType": "uint256",
              "name": "nodeId",
              "type": "uint256"
            },
            {
              "internalType": "uint256",
              "name": "sponsor",
              "type": "uint256"
            },
            {
              "internalType": "uint256",
              "name": "matrixParent",
              "type": "uint256"
            },
            {
              "internalType": "uint256",
              "name": "joinedAt",
              "type": "uint256"
            },
            {
              "internalType": "uint256",
              "name": "tier",
              "type": "uint256"
            },
            {
              "internalType": "uint256",
              "name": "directNodes",
              "type": "uint256"
            },
            {
              "internalType": "uint256",
              "name": "totalMatrixNodes",
              "type": "uint256"
            },
            {
              "internalType": "uint256",
              "name": "totalContribution",
              "type": "uint256"
            },
            {
              "internalType": "uint256[18]",
              "name": "sponsorTierRanks",
              "type": "uint256[18]"
            }
          ],
          "internalType": "struct INodeFlowEngine.Node",
          "name": "",
          "type": "tuple"
        }
      ],
      "stateMutability": "view",
      "type": "function"
    },
    {
      "inputs": [
        {
          "internalType": "uint256",
          "name": "_nodeId",
          "type": "uint256"
        }
      ],
      "name": "getNodeCurDay",
      "outputs": [
        {
          "internalType": "uint256",
          "name": "",
          "type": "uint256"
        }
      ],
      "stateMutability": "view",
      "type": "function"
    },
    {
      "inputs": [
        {
          "internalType": "uint256",
          "name": "_userId",
          "type": "uint256"
        }
      ],
      "name": "getNodeStats",
      "outputs": [
        {
          "internalType": "uint256",
          "name": "tier",
          "type": "uint256"
        },
        {
          "internalType": "uint256",
          "name": "directCount",
          "type": "uint256"
        },
        {
          "internalType": "uint256",
          "name": "matrixCount",
          "type": "uint256"
        },
        {
          "internalType": "uint256",
          "name": "totalRewards",
          "type": "uint256"
        },
        {
          "internalType": "uint256",
          "name": "totalContribution",
          "type": "uint256"
        },
        {
          "internalType": "uint256",
          "name": "daysActive",
          "type": "uint256"
        }
      ],
      "stateMutability": "view",
      "type": "function"
    },
    {
      "inputs": [
        {
          "internalType": "uint256",
          "name": "_userId",
          "type": "uint256"
        }
      ],
      "name": "getPoolQualificationData",
      "outputs": [
        {
          "internalType": "uint256",
          "name": "totalDeposited",
          "type": "uint256"
        },
        {
          "internalType": "uint256",
          "name": "directReferrals",
          "type": "uint256"
        },
        {
          "internalType": "uint256",
          "name": "totalTeam",
          "type": "uint256"
        },
        {
          "internalType": "uint256",
          "name": "currentLevel",
          "type": "uint256"
        },
        {
          "internalType": "uint256",
          "name": "directTeamL1",
          "type": "uint256"
        },
        {
          "internalType": "uint256",
          "name": "matrixTeam",
          "type": "uint256"
        },
        {
          "internalType": "uint256",
          "name": "registrationTime",
          "type": "uint256"
        },
        {
          "internalType": "bool",
          "name": "isActive",
          "type": "bool"
        }
      ],
      "stateMutability": "view",
      "type": "function"
    },
    {
      "inputs": [
        {
          "internalType": "uint256",
          "name": "_userId",
          "type": "uint256"
        },
        {
          "internalType": "uint256",
          "name": "_depth",
          "type": "uint256"
        }
      ],
      "name": "getTeamSize",
      "outputs": [
        {
          "internalType": "uint256",
          "name": "",
          "type": "uint256"
        }
      ],
      "stateMutability": "view",
      "type": "function"
    },
    {
      "inputs": [
        {
          "internalType": "uint256",
          "name": "_index",
          "type": "uint256"
        }
      ],
      "name": "getTierCost",
      "outputs": [
        {
          "internalType": "uint256",
          "name": "",
          "type": "uint256"
        }
      ],
      "stateMutability": "view",
      "type": "function"
    },
    {
      "inputs": [],
      "name": "getTierCosts",
      "outputs": [
        {
          "internalType": "uint256[18]",
          "name": "_costs",
          "type": "uint256[18]"
        }
      ],
      "stateMutability": "view",
      "type": "function"
    },
    {
      "inputs": [
        {
          "internalType": "uint256",
          "name": "_nodeId",
          "type": "uint256"
        }
      ],
      "name": "getTierRewards",
      "outputs": [
        {
          "internalType": "uint256[18]",
          "name": "",
          "type": "uint256[18]"
        }
      ],
      "stateMutability": "view",
      "type": "function"
    },
    {
      "inputs": [
        {
          "internalType": "uint256",
          "name": "_userId",
          "type": "uint256"
        }
      ],
      "name": "getTotalIncome",
      "outputs": [
        {
          "internalType": "uint256",
          "name": "",
          "type": "uint256"
        }
      ],
      "stateMutability": "view",
      "type": "function"
    },
    {
      "inputs": [],
      "name": "getTransparencyData",
      "outputs": [
        {
          "internalType": "uint256",
          "name": "_totalNodes",
          "type": "uint256"
        },
        {
          "internalType": "uint256",
          "name": "_totalBNBDistributed",
          "type": "uint256"
        },
        {
          "internalType": "uint256",
          "name": "_totalTiers",
          "type": "uint256"
        },
        {
          "internalType": "address",
          "name": "_contractAddress",
          "type": "address"
        },
        {
          "internalType": "address",
          "name": "_ownerAddress",
          "type": "address"
        },
        {
          "internalType": "bool",
          "name": "_isRenounced",
          "type": "bool"
        }
      ],
      "stateMutability": "view",
      "type": "function"
    },
    {
      "inputs": [],
      "name": "getTreasuryBreakdown",
      "outputs": [
        {
          "internalType": "uint256",
          "name": "platformFees",
          "type": "uint256"
        },
        {
          "internalType": "uint256",
          "name": "missedRewards",
          "type": "uint256"
        },
        {
          "internalType": "uint256",
          "name": "totalPending",
          "type": "uint256"
        }
      ],
      "stateMutability": "view",
      "type": "function"
    },
    {
      "inputs": [
        {
          "internalType": "uint256",
          "name": "_fromLevel",
          "type": "uint256"
        },
        {
          "internalType": "uint256",
          "name": "_levels",
          "type": "uint256"
        }
      ],
      "name": "getUpgradeCost",
      "outputs": [
        {
          "internalType": "uint256",
          "name": "totalCost",
          "type": "uint256"
        }
      ],
      "stateMutability": "view",
      "type": "function"
    },
    {
      "inputs": [
        {
          "internalType": "uint256",
          "name": "_userId",
          "type": "uint256"
        }
      ],
      "name": "getUserLevel",
      "outputs": [
        {
          "internalType": "uint256",
          "name": "",
          "type": "uint256"
        }
      ],
      "stateMutability": "view",
      "type": "function"
    },
    {
      "inputs": [
        {
          "internalType": "uint256",
          "name": "",
          "type": "uint256"
        }
      ],
      "name": "globalNodes",
      "outputs": [
        {
          "internalType": "uint256",
          "name": "",
          "type": "uint256"
        }
      ],
      "stateMutability": "view",
      "type": "function"
    },
    {
      "inputs": [
        {
          "internalType": "uint256",
          "name": "userId",
          "type": "uint256"
        }
      ],
      "name": "isNodeActive",
      "outputs": [
        {
          "internalType": "bool",
          "name": "",
          "type": "bool"
        }
      ],
      "stateMutability": "view",
      "type": "function"
    },
    {
      "inputs": [
        {
          "internalType": "address",
          "name": "node",
          "type": "address"
        }
      ],
      "name": "isNodeRegistered",
      "outputs": [
        {
          "internalType": "bool",
          "name": "",
          "type": "bool"
        }
      ],
      "stateMutability": "view",
      "type": "function"
    },
    {
      "inputs": [],
      "name": "isOwnershipRenounced",
      "outputs": [
        {
          "internalType": "bool",
          "name": "",
          "type": "bool"
        }
      ],
      "stateMutability": "view",
      "type": "function"
    },
    {
      "inputs": [],
      "name": "lastPriceUpdate",
      "outputs": [
        {
          "internalType": "uint256",
          "name": "",
          "type": "uint256"
        }
      ],
      "stateMutability": "view",
      "type": "function"
    },
    {
      "inputs": [
        {
          "internalType": "uint256",
          "name": "_newPrice",
          "type": "uint256"
        }
      ],
      "name": "manualUpdatePrice",
      "outputs": [],
      "stateMutability": "nonpayable",
      "type": "function"
    },
    {
      "inputs": [],
      "name": "matrixAdmin",
      "outputs": [
        {
          "internalType": "address",
          "name": "",
          "type": "address"
        }
      ],
      "stateMutability": "view",
      "type": "function"
    },
    {
      "inputs": [
        {
          "internalType": "uint256",
          "name": "",
          "type": "uint256"
        }
      ],
      "name": "matrixChildCount",
      "outputs": [
        {
          "internalType": "uint256",
          "name": "",
          "type": "uint256"
        }
      ],
      "stateMutability": "view",
      "type": "function"
    },
    {
      "inputs": [],
      "name": "maxAllowedPrice",
      "outputs": [
        {
          "internalType": "uint256",
          "name": "",
          "type": "uint256"
        }
      ],
      "stateMutability": "view",
      "type": "function"
    },
    {
      "inputs": [],
      "name": "maxMatrixDepth",
      "outputs": [
        {
          "internalType": "uint256",
          "name": "",
          "type": "uint256"
        }
      ],
      "stateMutability": "view",
      "type": "function"
    },
    {
      "inputs": [],
      "name": "minAllowedPrice",
      "outputs": [
        {
          "internalType": "uint256",
          "name": "",
          "type": "uint256"
        }
      ],
      "stateMutability": "view",
      "type": "function"
    },
    {
      "inputs": [],
      "name": "missedRewardsAccrued",
      "outputs": [
        {
          "internalType": "uint256",
          "name": "",
          "type": "uint256"
        }
      ],
      "stateMutability": "view",
      "type": "function"
    },
    {
      "inputs": [
        {
          "internalType": "uint256",
          "name": "",
          "type": "uint256"
        },
        {
          "internalType": "uint256",
          "name": "",
          "type": "uint256"
        },
        {
          "internalType": "uint256",
          "name": "",
          "type": "uint256"
        }
      ],
      "name": "networkTree",
      "outputs": [
        {
          "internalType": "uint256",
          "name": "",
          "type": "uint256"
        }
      ],
      "stateMutability": "view",
      "type": "function"
    },
    {
      "inputs": [
        {
          "internalType": "uint256",
          "name": "",
          "type": "uint256"
        },
        {
          "internalType": "uint256",
          "name": "",
          "type": "uint256"
        }
      ],
      "name": "nodeDayReward",
      "outputs": [
        {
          "internalType": "uint256",
          "name": "",
          "type": "uint256"
        }
      ],
      "stateMutability": "view",
      "type": "function"
    },
    {
      "inputs": [
        {
          "internalType": "address",
          "name": "",
          "type": "address"
        }
      ],
      "name": "nodeId",
      "outputs": [
        {
          "internalType": "uint256",
          "name": "",
          "type": "uint256"
        }
      ],
      "stateMutability": "view",
      "type": "function"
    },
    {
      "inputs": [
        {
          "internalType": "uint256",
          "name": "",
          "type": "uint256"
        }
      ],
      "name": "nodes",
      "outputs": [
        {
          "internalType": "address",
          "name": "wallet",
          "type": "address"
        },
        {
          "internalType": "uint256",
          "name": "nodeId",
          "type": "uint256"
        },
        {
          "internalType": "uint256",
          "name": "sponsor",
          "type": "uint256"
        },
        {
          "internalType": "uint256",
          "name": "matrixParent",
          "type": "uint256"
        },
        {
          "internalType": "uint256",
          "name": "joinedAt",
          "type": "uint256"
        },
        {
          "internalType": "uint256",
          "name": "tier",
          "type": "uint256"
        },
        {
          "internalType": "uint256",
          "name": "directNodes",
          "type": "uint256"
        },
        {
          "internalType": "uint256",
          "name": "totalMatrixNodes",
          "type": "uint256"
        },
        {
          "internalType": "uint256",
          "name": "totalContribution",
          "type": "uint256"
        }
      ],
      "stateMutability": "view",
      "type": "function"
    },
    {
      "inputs": [],
      "name": "oracleAdmin",
      "outputs": [
        {
          "internalType": "address",
          "name": "",
          "type": "address"
        }
      ],
      "stateMutability": "view",
      "type": "function"
    },
    {
      "inputs": [],
      "name": "owner",
      "outputs": [
        {
          "internalType": "address",
          "name": "",
          "type": "address"
        }
      ],
      "stateMutability": "view",
      "type": "function"
    },
    {
      "inputs": [
        {
          "internalType": "address",
          "name": "",
          "type": "address"
        }
      ],
      "name": "pendingReward",
      "outputs": [
        {
          "internalType": "uint256",
          "name": "",
          "type": "uint256"
        }
      ],
      "stateMutability": "view",
      "type": "function"
    },
    {
      "inputs": [],
      "name": "platformFeesAccrued",
      "outputs": [
        {
          "internalType": "uint256",
          "name": "",
          "type": "uint256"
        }
      ],
      "stateMutability": "view",
      "type": "function"
    },
    {
      "inputs": [],
      "name": "renounceOwnership",
      "outputs": [],
      "stateMutability": "nonpayable",
      "type": "function"
    },
    {
      "inputs": [
        {
          "internalType": "uint256",
          "name": "",
          "type": "uint256"
        },
        {
          "internalType": "uint256",
          "name": "",
          "type": "uint256"
        }
      ],
      "name": "rewardHistory",
      "outputs": [
        {
          "internalType": "uint256",
          "name": "id",
          "type": "uint256"
        },
        {
          "internalType": "uint256",
          "name": "layer",
          "type": "uint256"
        },
        {
          "internalType": "uint256",
          "name": "amount",
          "type": "uint256"
        },
        {
          "internalType": "uint256",
          "name": "time",
          "type": "uint256"
        },
        {
          "internalType": "bool",
          "name": "isMissed",
          "type": "bool"
        },
        {
          "internalType": "uint256",
          "name": "rewardType",
          "type": "uint256"
        },
        {
          "internalType": "uint256",
          "name": "tier",
          "type": "uint256"
        }
      ],
      "stateMutability": "view",
      "type": "function"
    },
    {
      "inputs": [
        {
          "internalType": "uint256",
          "name": "",
          "type": "uint256"
        }
      ],
      "name": "rewardInfo",
      "outputs": [
        {
          "internalType": "uint256",
          "name": "totalRewards",
          "type": "uint256"
        },
        {
          "internalType": "uint256",
          "name": "sponsorReward",
          "type": "uint256"
        },
        {
          "internalType": "uint256",
          "name": "layerReward",
          "type": "uint256"
        },
        {
          "internalType": "uint256",
          "name": "matrixReward",
          "type": "uint256"
        },
        {
          "internalType": "uint256",
          "name": "directReward",
          "type": "uint256"
        },
        {
          "internalType": "uint256",
          "name": "missedReward",
          "type": "uint256"
        }
      ],
      "stateMutability": "view",
      "type": "function"
    },
    {
      "inputs": [
        {
          "internalType": "uint256",
          "name": "_type",
          "type": "uint256"
        },
        {
          "internalType": "address",
          "name": "_new",
          "type": "address"
        },
        {
          "internalType": "uint256",
          "name": "_num",
          "type": "uint256"
        }
      ],
      "name": "setAddr",
      "outputs": [],
      "stateMutability": "nonpayable",
      "type": "function"
    },
    {
      "inputs": [
        {
          "internalType": "uint256",
          "name": "_min",
          "type": "uint256"
        },
        {
          "internalType": "uint256",
          "name": "_max",
          "type": "uint256"
        }
      ],
      "name": "setPriceBounds",
      "outputs": [],
      "stateMutability": "nonpayable",
      "type": "function"
    },
    {
      "inputs": [],
      "name": "sweepTreasury",
      "outputs": [],
      "stateMutability": "nonpayable",
      "type": "function"
    },
    {
      "inputs": [
        {
          "internalType": "uint256",
          "name": "",
          "type": "uint256"
        },
        {
          "internalType": "uint256",
          "name": "",
          "type": "uint256"
        },
        {
          "internalType": "uint256",
          "name": "",
          "type": "uint256"
        }
      ],
      "name": "teams",
      "outputs": [
        {
          "internalType": "uint256",
          "name": "",
          "type": "uint256"
        }
      ],
      "stateMutability": "view",
      "type": "function"
    },
    {
      "inputs": [
        {
          "internalType": "uint256",
          "name": "",
          "type": "uint256"
        }
      ],
      "name": "tierPriceUSD",
      "outputs": [
        {
          "internalType": "uint256",
          "name": "",
          "type": "uint256"
        }
      ],
      "stateMutability": "view",
      "type": "function"
    },
    {
      "inputs": [],
      "name": "totalBNBDistributed",
      "outputs": [
        {
          "internalType": "uint256",
          "name": "",
          "type": "uint256"
        }
      ],
      "stateMutability": "view",
      "type": "function"
    },
    {
      "inputs": [],
      "name": "totalNodes",
      "outputs": [
        {
          "internalType": "uint256",
          "name": "",
          "type": "uint256"
        }
      ],
      "stateMutability": "view",
      "type": "function"
    },
    {
      "inputs": [
        {
          "internalType": "address",
          "name": "_newOwner",
          "type": "address"
        }
      ],
      "name": "transferOwnership",
      "outputs": [],
      "stateMutability": "nonpayable",
      "type": "function"
    },
    {
      "inputs": [
        {
          "internalType": "uint256",
          "name": "_nodeId",
          "type": "uint256"
        },
        {
          "internalType": "uint256",
          "name": "_toTier",
          "type": "uint256"
        }
      ],
      "name": "unlockTier",
      "outputs": [],
      "stateMutability": "payable",
      "type": "function"
    },
    {
      "inputs": [],
      "name": "withdraw",
      "outputs": [],
      "stateMutability": "nonpayable",
      "type": "function"
    },
    {
      "stateMutability": "payable",
      "type": "receive"
    }
  ],
  "bytecode": "0x60a0346200048457601f6200514d38819003918201601f1916830192916001600160401b03918285118486101762000489578160809285926040978852833981010312620004845762000052826200049f565b90602091620000638385016200049f565b936200007f6060620000778884016200049f565b92016200049f565b9360019260009484865564746a5288006008556402540be4006009556019600a5560129081600b558951906102408201908282109082111762000470578a52674563918244f4000080825284820152678ac7230489e800008a8201526801158e460913d00000606082015268022b1c8c1227a0000060808201526804563918244f40000060a08201526808ac7230489e80000060c0820152681158e460913d00000060e08201526822b1c8c1227a000000610100820152684563918244f4000000610120820152688ac7230489e80000006101408201526901158e460913d000000061016082015269022b1c8c1227a00000006101808201526904563918244f400000006101a08201526908ac7230489e800000006101c0820152691158e460913d000000006101e08201526922b1c8c1227a00000000610200820152694563918244f40000000061022082015285875b83811062000453575050506001600160a01b0391821697905087156200041e578116928315620003ea578116958615620003b45716958615620003835760018060a01b03199687602d541617602d55600495338888541617875533886005541617600555640df8475800600655426007556190879384608052619088602255886002541617600255876003541617600355808552602a825282888620558285526024825287852096838589015585600289015585600389015587541617865560235490680100000000000000008210156200037057838201806023558210156200035d576023855284200155601e548181018091116200034a57601e55600584015542828401556008620002e3620004b4565b9301918254938401809411620003375750505551614c4e9081620004ff8239608051818181611226015281816113b10152818161185a01528181611e7e015281816122e60152818161231201526123580152f35b634e487b7160e01b825260119052602490fd5b634e487b7160e01b835260118452602483fd5b634e487b7160e01b855260328652602485fd5b634e487b7160e01b855260418652602485fd5b875162461bcd60e51b815260048101839052600a6024820152692d32b9379037bbb732b960b11b6044820152606490fd5b885162461bcd60e51b815260048101849052600f60248201526e16995c9bc81c995dd85c99141bdbdb608a1b6044820152606490fd5b885162461bcd60e51b815260048101849052600d60248201526c5a65726f20747265617375727960981b6044820152606490fd5b885162461bcd60e51b815260048101849052600e60248201526d2d32b937903334b939ba2ab9b2b960911b6044820152606490fd5b82516001600160501b0316600c82015591850191879101620001d0565b634e487b7160e01b88526041600452602488fd5b600080fd5b634e487b7160e01b600052604160045260246000fd5b51906001600160a01b03821682036200048457565b6006548015620004f257600c546305f5e10090818102918183041490151715620004dc570490565b634e487b7160e01b600052601160045260246000fd5b5066038d7ea4c680009056fe6080604052600436101561001b575b361561001957600080fd5b005b60003560e01c80630969949414613cca57806319b9dfb514613c515780631c53c28014613bc55780631e195c351461386857806322163b861461384b5780632277d5331461382257806326d4e29a146137d157806328326a8f146137b35780632980734814613784578063299e50e71461375857806338f8fe83146137295780633c6a34e0146136955780633ccfd60b146135ae5780634830dfa5146135105780634addd03f146134d35780634bae1b871461336257806355b98b9a14613344578063576dde1214613326578063582e4396146132035780635aabf7f1146131b85780635e116c481461317e57806366c8707a146131525780636949faeb14613134578063706bc74d146130e9578063715018a61461308957806374b58d9a1461306b578063777373ef1461304857806377e088b714612fee57806379fe630814612fbd5780637bd9ff0214612e5e5780637dc870171461223e5780637dce6e2014611f3e5780637e976a7514611f1257806381a00f8314611ea157806385a6327c14611e665780638cc0ebb514611e2a5780638da5cb5b14611e015780639592d42414611de35780639f023eb614611db9578063a133245b14611d9b578063a37ab13f14611d75578063a7a9d8cc14611d42578063a986030814611c68578063aac6b12114611b9e578063af840f2a14611b1d578063afe4d95014611ad0578063b2386e7f14611a8e578063bead167d146119ce578063bf1c7b41146118b8578063c3f909d41461180a578063c9bee38414611467578063cab0fb7314611449578063dea5e6e814611420578063e6aeb87d146104a1578063f0cc4ffb1461045b578063f2fde38b146103e4578063f40f0f52146103aa5763fd5993cf0361000e57346103a5576020806003193601126103a5576004358060005260248252604060002091604051916102ce83613f7e565b60018060a01b03845416835260018401549082840191825260028501546040850152600385015460608501526004850154906080850191825260058601549460a0810195865260068701549560c0820196875260078801549260e08301938452600889015461012061034b60096101009c8d880194855201614577565b9401938452519751906000526028875260406000206000805287528660406000205492519351015193519451955115159660405198895288015260408701526060860152608085015260a084015260c083015260e0820152f35b600080fd5b346103a55760203660031901126103a5576001600160a01b036103cb613e17565b16600052602c6020526020604060002054604051908152f35b346103a55760203660031901126103a5576103fd613e17565b602d54906001600160a01b0380831691610418338414614914565b1680926104268215156148d9565b6001600160a01b03191617602d557f8be0079c531659141344cd1fd0a4f28419497f9722a3daafe3b4186f6b6457e0600080a3005b346103a55761046936613ce8565b906012821015610498575b60005260286020526040600020906000526020526020604060002054604051908152f35b60119150610474565b60203660031901126103a5576104bc60026000541415613f17565b6002600055600754620151808101809111610b4e574211611413575b33600052602a6020526040600020546113d9576004356000526024602052600460406000200154158015906113ae575b156113765760225460018101808211610b4e5760225533600052602a60205280604060002055806000526024602052604060002090600182015561054a613e98565b9081341061134157813411611319575b6004356002820155336001600160601b0360a01b825416178155600435600052602460205260066040600020018054600181018111610b4e57600101905560028101546000905b601282106112c6575b50506105d96127106105bb84614ad2565b6105c3614bd4565b50600354919004906001600160a01b031661442a565b6105f76127106105e884614b36565b6105f0614bd4565b5004614b56565b6105ff614bd4565b5061063b612710610611818404614b76565b610619614bd4565b50600285015460005260246020520460018060a01b0360406000205416614368565b6002820154600052602660205261069660406000206001840154906040519161066383613f9b565b8252600160208301526127108404604083015242606083015260006080830152600060a0830152600060c08301526140f7565b6002820154600052602560205260406000206106b761271083048254613f71565b90556002820154600052602560205260016040600020016106dd61271083048254613f71565b905560028201546000526025602052600660406000200161070361271083048254613f71565b9055600282015480600052602b602052610721604060002091614819565b600052602052604060002061073b61271083048254613f71565b905560018060a01b03825416600283015490600080516020614bf983398151915260e0600186015494612710604051918783526001602084015204604082015242606082015260006080820152600060a0820152600060c0820152a3602354600160401b8110156112b057600181018060235581101561129a577fd57b2b5166478fd4318d2acc6cc2c704584312bdd8781b32d5d06abda57f42300155601e54610fe8575b60018101549160009183600052602460205260036040600020015491600061080e610809613e98565b614b36565b95610817614bd4565b506000945b8661082681613f63565b90610fb857600b5461083791614bb6565b861015610fab578015610fab5782861461086a575b865260246020526108646003604088200154956140aa565b9461081c565b9492959091939661087e6127108204614b96565b94610887614bd4565b50600087815260246020526040902060059081015415610e98575050506108dd6127106108b5818704614b76565b6108bd614bd4565b5087845260246020526040842054919004906001600160a01b0316614368565b8481526025602052604081206108f861271086048254613f71565b905584815260256020526003604082200161091861271086048254613f71565b905584815260256020526109606109358260066040822001613ded565b610949612710880483548360031b1c613f71565b825460001960039390931b92831b1916911b179055565b848152602660205260408120600184018411610e8457600080516020614bf98339815191529392916109d0610a59926040519061099c82613f9b565b85825260018701602083015261271089046040830152426060830152836080830152600360a08301528360c08301526140f7565b868152602b602052604081206109e588614819565b8252602052604081206109fd61271088048254613f71565b9055828152602460205260018060a01b0360408220541695604051948594600161271042940492019086919260c093969594919660e0840197845260208401526040830152606082015260006080820152600360a08201520152565b0390a35b6001820154806000526024602052600260406000200154600052600260406000200154610a8b610809613e98565b90610a94614bd4565b506000905b60128210610b64575b50505050426004830155601e5460018101809111610b4e57601e556005820180549060018201809211610b4e5755610adf60088301918254613f71565b90556004356000526024602052600960406000200180549060018201809211610b4e575560018060a01b038154166001820154907f8adf85661012f3ce69d2b42bb90dc411816dbd343b5f3e4c65a377cc182c0b22602060036002860154950154604051908152a46001600055005b634e487b7160e01b600052601160045260246000fd5b8015610e7f5760048211610e6357610b8260c85b6127108504614bb6565b610b8a614bd4565b508160005260246020526040600020600581015415159081610e53575b5015610d5a57610be4612710610bbe818404614b76565b610bc6614bd4565b508460005260246020520460018060a01b0360406000205416614368565b816000526026602052604060002090600184018411610b4e57610c45839260405190610c0f82613f9b565b8882526001870160208301526127108404604083015242606083015260006080830152600260a0830152600060c08301526140f7565b8160005260256020526040600020610c6261271083048254613f71565b90558160005260256020526002604060002001610c8461271083048254613f71565b90558160005260256020526006604060002001610ca661271083048254613f71565b905581600052602b6020526040600020610cbf83614819565b6000526020526040600020610cd961271083048254613f71565b9055856000526024602052600080516020614bf983398151915260e060018060a01b036040600020541692612710604051918a835260018901602084015204604082015242606082015260006080820152600260a0820152600060c0820152a35b6000526024602052610d54600260406000200154916140aa565b90610a99565b6021610d6b61271083048254613f71565b9055816000526026602052604060002090600184018411610b4e57610dce839260405190610d9882613f9b565b8882526001870160208301526127108404604083015242606083015260016080830152600260a0830152600060c08301526140f7565b8160005260256020526005604060002001610dee61271083048254613f71565b9055856000526024602052600080516020614bf983398151915260e060018060a01b036040600020541692612710604051918a835260018901602084015204604082015242606082015260016080820152600260a0820152600060c0820152a3610d3a565b60029150600a0154101588610ba7565b60098211610e7557610b826064610b78565b610b826023610b78565b610aa2565b634e487b7160e01b82526011600452602482fd5b90979496939250602198959198610eb461271084048254613f71565b9055836000526025602052604060002001610ed461271083048254613f71565b9055826000526026602052604060002090600187018711610b4e57610f37849260405190610f0182613f9b565b85825260018a0160208301526127108404604083015242606083015260016080830152600360a0830152600060c08301526140f7565b826000526024602052600080516020614bf983398151915260e060018060a01b0360406000205416926127106040519187835260018c01602084015204604082015242606082015260016080820152600360a0820152600060c0820152a3600095600181018111610b4e576001019161084c565b5050509250925050610a5d565b60405162461bcd60e51b815260206004820152600860248201526730b23234ba34b7b760c11b6044820152606490fd5b60018101549160028201546000808260005260296020526002604060002054106000146110c75750508360005260246020528060036040600020015580600052602960205260406000208054600181018111610b4e576001019055905b6000915b600a548310156110be5780156110be5780600052602460205260076040600020018054600181018111610b4e57600101905580600052602760205260406000208360005260205261109e8560406000206140b9565b60005260246020526110b8600360406000200154926140aa565b91611049565b509250506107e0565b6000949193945b600a5481101561128f5784611216578360005260276020526040600020600182018211610b4e5760018201600052602052604060002054600282018211610b4e5760ff6002830111610b4e576001600283011b11611135575b611130906140aa565b6110ce565b9394909160005b84600052602760205260406000208660005260205260406000205481101561120857866111f757846000526027602052604060002086600052602052611186816040600020613dd5565b90549060031b1c8060005260296020526002604060002054106111b3575b506111ae906140aa565b61113c565b91935095508660005260246020528060036040600020015580600052602960205260406000208054600181018111610b4e576001019055916111ae600196906111a4565b5091909493611130905b9050611127565b509190949361113090611201565b5092509290505b816110455790507f000000000000000000000000000000000000000000000000000000000000000090836000526024602052816003604060002001558160005260296020526040600020805460028110611279575b5050611045565b600181018111610b4e5760010190558480611272565b50925092905061121d565b634e487b7160e01b600052603260045260246000fd5b634e487b7160e01b600052604160045260246000fd5b8015611314578060005260286020526040600020826000526020526112f460406000206001850154906140b9565b600052602460205261130e600260406000200154916140aa565b906105a1565b6105aa565b61133c600080808061132b8734614061565b335af1611336614012565b5061406e565b61055a565b60405162461bcd60e51b815260206004820152600d60248201526c696e76616c69642076616c756560981b6044820152606490fd5b60405162461bcd60e51b815260206004820152601060248201526f24b73b30b634b2102932b332b93932b960811b6044820152606490fd5b507f000000000000000000000000000000000000000000000000000000000000000060043514610508565b60405162461bcd60e51b8152602060048201526012602482015271105b1c9958591e48149959da5cdd195c995960721b6044820152606490fd5b61141b614197565b6104d8565b346103a55760003660031901126103a5576004546040516001600160a01b039091168152602090f35b346103a55760003660031901126103a5576020600854604051908152f35b346103a55760603660031901126103a5576004356024356001600160a01b03818116918290036103a557604435836114f657509091506114ac81602d54163314614858565b6114b78215156148d9565b600254826001600160601b0360a01b821617600255169060007f95c2e8f4bbff98f09d45b3c9d594928265cdf57754a9078f180e13045d7e96528180a4005b60019380850361155a57505061151181602d54163314614858565b61151c8215156148d9565b600354826001600160601b0360a01b82161760035516917f95c2e8f4bbff98f09d45b3c9d594928265cdf57754a9078f180e13045d7e9652600080a4005b9092906004810361160457505061157690602d54163314614858565b81811015806115f9575b156115be5760407f2ab87283ed81972875a86f5516993b097f70184b82d9768e86d73c8b4fb589a891600b549080600b5582519182526020820152a2005b60405162461bcd60e51b8152602060048201526013602482015272125b9d985b1a59081b185e595c8818dbdd5b9d606a1b6044820152606490fd5b506019811115611580565b929392600681036116a657505061162090600554163314614858565b8110611661577f2ab87283ed81972875a86f5516993b097f70184b82d9768e86d73c8b4fb589a86040600092600a549080600a5582519182526020820152a2005b60405162461bcd60e51b815260206004820152601b60248201527f6d61784d61747269784465707468206d757374206265203e3d203100000000006044820152606490fd5b929350916007810361170657508192506116c66005549182163314614858565b6116d182151561488d565b6001600160a01b031916176005557f2cedadec57c2c6a9a781699377c5c4816d2e1cbcef4df5f527b49fd1a2be3e51600080a2005b600a810361176257508192506117226004549182163314614858565b61172d82151561488d565b6001600160a01b031916176004557fff14677752336be594f7e70ee9082cd102a6aaf3b8be178efb1e77ef8d34772c600080a2005b600b036117ce5761177890600454163314614858565b80156117955781546001600160a01b031916179055610019614197565b60405162461bcd60e51b81526020600482015260116024820152705a65726f2066656564206164647265737360781b6044820152606490fd5b60405162461bcd60e51b8152602060048201526014602482015273556e6b6e6f776e2073657441646472207479706560601b6044820152606490fd5b346103a55760003660031901126103a557610180601e54600a5460065460075460018060a01b0380602d54168160045416826005541691836002541693600354169460085496600954986040519a7f00000000000000000000000000000000000000000000000000000000000000008c5260208c015260408b015260608a0152608089015260a088015260c087015260e0860152610100850152610120840152610140830152610160820152f35b346103a55760203660031901126103a55760043580600052602460205260406000206119ca604051926118ea84613f7e565b60018060a01b03835416845260018301549260208501938452600281015460408601526003810154606086015260048101549060808601918252600581015460a0870190815261197460068301549660c0890197885260078401549860e08101998a526101206119696009600888015497610100850198895201614577565b910152511515614951565b5194519551926000526025602052620151806119996040600020549251935142614061565b0492604051968796879260a094919796959260c0850198855260208501526040840152606083015260808201520152565b0390f35b346103a55760203660031901126103a557600435600052602560205260406000206040516119fb81613f9b565b815481526119ca60018301549160208101928352600284015493604082019485526003810154916060810192835260048201549060808101918252611a4e600660058501549460a0840195865201614577565b60c0820152519451955192519051915192604051968796879260a094919796959260c0850198855260208501526040840152606083015260808201520152565b346103a55760003660031901126103a557602054602154906119ca611ab38383613f71565b604051938493846040919493926060820195825260208201520152565b346103a55760203660031901126103a557610240604051611af081613fb7565b36903760043560005260256020526119ca611b116006604060002001614577565b60405191829182613e2d565b346103a557611b2b36613ce8565b906000526026602052604060002080548210156103a55760e091611b4e91613e5c565b508054906001810154906002810154600382015460ff6004840154169160066005850154940154946040519687526020870152604086015260608501521515608084015260a083015260c0820152f35b346103a5576020806003193601126103a55760043560405191611bc083613fd4565b604036843760005b8260005260278083526040600020600080528352604060002054821080611c5e575b15611c33578360005282526040600020600080528252611c0e816040600020613dd5565b919054600282101561129a57611c2e9260031b1c8160051b8601526140aa565b611bc8565b60405185846000835b60028210611c4957604085f35b82806001928651815201940191019092611c3c565b5060028210611bea565b346103a55760203660031901126103a557610360611c84613e17565b611c8c6144b6565b506001600160a01b039081166000908152602a6020526040902054611cb2811515614951565b6000526024602052611d2d6009604060002060405193611cd185613f7e565b815416845260018101546020850152600281015460408501526003810154606085015260048101546080850152600581015460a0850152600681015460c0850152600781015460e0850152600881015461010085015201614577565b610120820152611d406040518092613cfe565bf35b346103a557611d5036613ce8565b90600052602b6020526040600020906000526020526020604060002054604051908152f35b346103a55760203660031901126103a5576020611d93600435613ed3565b604051908152f35b346103a55760003660031901126103a5576020600954604051908152f35b346103a55760003660031901126103a557602d546040516001600160a01b03909116158152602090f35b346103a55760003660031901126103a5576020601e54604051908152f35b346103a55760003660031901126103a557602d546040516001600160a01b039091168152602090f35b346103a55760203660031901126103a5576001600160a01b03611e4b613e17565b16600052602a60205260206040600020541515604051908152f35b346103a55760003660031901126103a55760206040517f00000000000000000000000000000000000000000000000000000000000000008152f35b346103a55760203660031901126103a5576004356000526025602052604060002080546119ca60018301549260028101549060038101546005600483015492015492604051968796879260a094919796959260c0850198855260208501526040840152606083015260808201520152565b346103a55760203660031901126103a55760043560005260296020526020604060002054604051908152f35b346103a557611f4c36613dfd565b9091806000526028926020908482526040600020816000528252836040600020541160001461221e57611f7e84614513565b94836000528083526040600020826000528352846040600020541160001461210357600093806000528184526040600020836000528452604060002054945b816000528285526040600020846000528552611fde87604060002054614061565b8611156120eb5781600052828552604060002084600052855260406000206000198701878111610b4e5761201191613dd5565b9054600391821b1c600052602490818752604060002061209c60096040519261203984613f7e565b80546001600160a01b031684526001818101548c8601526002820154604086015294810154606085015260048101546080850152600581015460a0850152600681015460c0850152600781015460e0850152600881015461010085015201614577565b6101208201526120ac848c614563565b526120b7838b614563565b5082018092116120d757506120cf611fde91966145ff565b959050611fbd565b634e487b7160e01b60009081526011600452fd5b505050505050506119ca905b60405191829182613d8c565b600084815281845260408082208483528552812054949550845b612130575050505050506119ca906120f7565b85600052818452604060002083600052845260406000206000198601868111610b4e5761215c91613dd5565b9054600391821b1c60005260249081865260406000206121e760096040519261218484613f7e565b80546001600160a01b031684526001818101548b8601526002820154604086015294810154606085015260048101546080850152600581015460a0850152600681015460c0850152600781015460e0850152600881015461010085015201614577565b6101208201526121f7848b614563565b52612202838a614563565b5082018092116120d7575061221790946145ff565b938461211d565b826000528482526040600020816000528252611f7e604060002054614513565b61224736613ce8565b9061225760026000541415613f17565b6002600055600754620151808101809111610b4e574211612e51575b8060005260246020526040600020600181015415612e165760058101549283811115612dc05760128111612d7b57836122ab91614061565b918360005b6122ba8583613f71565b8610156122e3576122d76122dd916122d188613ed3565b90613f71565b956140aa565b946122b0565b847f00000000000000000000000000000000000000000000000000000000000000008403612d11575b612346907f00000000000000000000000000000000000000000000000000000000000000008503612cfd575b8391505b6123468185613f71565b821015612ce45761235682613ed3565b7f00000000000000000000000000000000000000000000000000000000000000008603612454575b506005860154600181018111610b4e576001016005870155601282101561244a576123be825b600288015460005260246020526009604060002001613ded565b9080548260031b1c91600183018311610b4e5760016123ef93019082549060031b91821b91600019901b1916179055565b60018060a01b03865416600187015492600181018111610b4e5761234693612443927f32b432190fc9c6489bc593ec826b76e9143b6ebcaa5e7d4ea89a4736732fbd4a6020604051600186018152a36140aa565b915061233c565b6123be60116123a4565b6127106105e861246992979396949597614b36565b612471614bd4565b506124ad612710612483818404614b76565b61248b614bd4565b5060028a015460005260246020520460018060a01b0360406000205416614368565b6002870154600052602660205260406000206001880154600186018611610b4e5761251391604051916124df83613f9b565b82526001870160208301526127108404604083015242606083015260006080830152600160a08301528660c08301526140f7565b60028701546000526025602052604060002061253461271083048254613f71565b905560028701546000526025602052600460406000200161255a61271083048254613f71565b90556002870154600052602560205261259261257d856006604060002001613ded565b61094982546127108604908360031b1c613f71565b600287015480600052602b6020526125ae604060002091614819565b60005260205260406000206125c861271083048254613f71565b905560018060a01b03875416600080516020614bf983398151915260e060028a01549361271060018c01549160405192835260018a01602084015204604082015242606082015260006080820152600160a08201528760c0820152a380600052602460205260026040600020015460005260026040600020015461264e61080985613ed3565b90612657614bd4565b506000905b601282106129f4575b505050806000526024602052600360406000200154839261268861080986613ed3565b96612691614bd4565b506000925b61269f87613f63565b878110610fb857600b546126b291614bb6565b8410156129e65780156129e6578584146126e7575b60005260246020526126e1600360406000200154936140aa565b92612696565b92919693976126fd612710829897939804614b96565b91612706614bd4565b5084600052602460205286600560406000200154116000146128cd57505061275b612710612735818404614b76565b61273d614bd4565b508560005260246020520460018060a01b0360406000205416614368565b826000526025602052604060002061277861271083048254613f71565b9055826000526025602052600360406000200161279a61271083048254613f71565b90558260005260256020526127cd6127b9866006604060002001613ded565b610949612710850483548360031b1c613f71565b826000526026602052604060002090600183018311610b4e5761283b600080516020614bf9833981519152926040519061280682613f9b565b8b82526001860160208301526127108404604083015242606083015260006080830152600360a08301528860c08301526140f7565b83600052602b602052604060002061285285614819565b600052602052604060002061286c61271083048254613f71565b905560008981526024602090815260408083205481518d815260019790970192870192909252612710909304928501929092524260608501526080840152600360a084015260c083018690526001600160a01b03169160e090a35b8661237e565b90989497929395969160216128e761271083048254613f71565b9055866000526025602052600560406000200161290961271083048254613f71565b9055866000526026602052604060002090600186018611610b4e5761296b88926040519061293682613f9b565b8982526001890160208301526127108404604083015242606083015260016080830152600360a08301528b60c08301526140f7565b866000526024602052600080516020614bf983398151915260e060018060a01b036040600020541692612710604051918b835260018b01602084015204604082015242606082015260016080820152600360a08201528b60c0820152a3600187018711610b4e576129e0906001880190613f71565b946126c7565b5094935094919550506128c7565b8015612cdf5760048211612cc357612a1160c86127108504614bb6565b612a19614bd4565b508160005260246020526040600020876005820154119081612cb3575b5015612bbc57612a4d612710610bbe818404614b76565b816000526026602052604060002090600184018411610b4e57612aad839260405190612a7882613f9b565b8882526001870160208301526127108404604083015242606083015260006080830152600260a08301528a60c08301526140f7565b8160005260256020526040600020612aca61271083048254613f71565b90558160005260256020526002604060002001612aec61271083048254613f71565b9055816000526025602052612b0b6127b9896006604060002001613ded565b81600052602b6020526040600020612b2283614819565b6000526020526040600020612b3c61271083048254613f71565b9055856000526024602052600080516020614bf983398151915260e060018060a01b036040600020541692612710604051918a835260018901602084015204604082015242606082015260006080820152600260a08201528a60c0820152a35b6000526024602052612bb6600260406000200154916140aa565b9061265c565b6021612bcd61271083048254613f71565b9055816000526026602052604060002090600184018411610b4e57612c2f839260405190612bfa82613f9b565b8882526001870160208301526127108404604083015242606083015260016080830152600260a08301528a60c08301526140f7565b8160005260256020526005604060002001612c4f61271083048254613f71565b9055856000526024602052600080516020614bf983398151915260e060018060a01b036040600020541692612710604051918a835260018901602084015204604082015242606082015260016080820152600260a08201528a60c0820152a3612b9c565b60029150600a015410158b612a36565b60098211612cd557612a116064610b78565b612a116023610b78565b612665565b82612cf460088801918254613f71565b90556001600055005b612d0c6127106105bb85614ad2565b612338565b813410612d425761234690823411612d2b575b905061230c565b612d3d600080808061132b8834614061565b612d24565b60405162461bcd60e51b8152602060048201526011602482015270496e76616c696420626e622056616c756560781b6044820152606490fd5b60405162461bcd60e51b815260206004820152601c60248201527f546172676574206c6576656c2065786365656473206d6178696d756d000000006044820152606490fd5b60405162461bcd60e51b815260206004820152602860248201527f546172676574206c6576656c206d75737420626520686967686572207468616e6044820152670818dd5c9c995b9d60c21b6064820152608490fd5b60405162461bcd60e51b8152602060048201526013602482015272139bd919481b9bdd081c9959da5cdd195c9959606a1b6044820152606490fd5b612e59614197565b612273565b346103a55760203660031901126103a557600435612e8760018060a01b03600454163314614858565b60095481101580612fb1575b15612f765760065480821115612f4657612ead8183614061565b61271090818102918183041490151715610b4e576107d091612ece91613e78565b11612f0d576040817f7bb53a16f0a956ec70e3aba1c9dcdd953de741292a17f213b0d38d24d6f476ba92600655426007558151908152426020820152a1005b60405162461bcd60e51b815260206004820152601160248201527026b0bc10191812903232bb34b0ba34b7b760791b6044820152606490fd5b612f508282614061565b61271090818102918183041490151715610b4e576107d091612f7191613e78565b612ece565b60405162461bcd60e51b81526020600482015260136024820152725072696365206f7574206f6620626f756e647360681b6044820152606490fd5b50600854811115612e93565b346103a55760203660031901126103a557600435600052602460205260206001604060002001541515604051908152f35b346103a55760003660031901126103a55760405161300b81613fb7565b61024036823760005b6012811061302a57604051806119ca8482613e2d565b8061303761304392613ed3565b8160051b8401526140aa565b613014565b346103a557602061306161305b36613ce8565b9061498e565b6040519015158152f35b346103a55760003660031901126103a5576020601f54604051908152f35b346103a55760003660031901126103a557602d546000906001600160a01b038116906130b6338314614914565b6001600160a01b031916602d557f8be0079c531659141344cd1fd0a4f28419497f9722a3daafe3b4186f6b6457e08280a3005b346103a55760003660031901126103a55760c0601e54601f5460018060a01b03602d5416906040519283526020830152601260408301523060608301528060808301521560a0820152f35b346103a55760003660031901126103a5576020600754604051908152f35b346103a55760203660031901126103a55760043560005260256020526020604060002054604051908152f35b346103a55760203660031901126103a5576001600160a01b0361319f613e17565b16600052602a6020526020604060002054604051908152f35b346103a5576131c636613dfd565b916000526027602052604060002090600052602052604060002080548210156103a5576020916131f591613dd5565b90546040519160031b1c8152f35b346103a55760003660031901126103a55761322360026000541415613f17565b6002600055602d546001600160a01b0390811633036132f0576020546021549161324d8383613f71565b9182156132b8576132b1937f6a6a1d26a8f3fc5235905587f2ffd52b350edb83e7966e0c9388f885db82ff2491600060205560006021556132a585604051938493846040919493926060820195825260208201520152565b0390a160025416614368565b6001600055005b60405162461bcd60e51b815260206004820152601060248201526f04e6f7468696e6720746f2073776565760841b6044820152606490fd5b60405162461bcd60e51b815260206004820152600e60248201526d139bdd08185d5d1a1bdc9a5e995960921b6044820152606490fd5b346103a55760003660031901126103a5576020600654604051908152f35b346103a55760003660031901126103a5576020600a54604051908152f35b346103a5576020806003193601126103a55760043560009160008260005260248252604060002060405161339581613f7e565b81546001600160a01b031681526001820154848201526002820154604082015260038201546060820190815260048301546080830152600583015460a0830152600683015460c0830152600783015460e08301526008830154610100830152916101209061340590600901614577565b9101525192806000526027835260406000206000805283526040600020546134a4575b8060005260278352604060002060008052835260016040600020541161346c575b506119ca9150604051938493846040919493926060820195825260208201520152565b9050600052602781526040600020600080528152604060002080546001101561129a576119ca91600191600052600020015484613449565b809450600052602782526040600020600080528252604060002080541561129a57600052816000205493613428565b346103a5576134e136613dfd565b916000526028602052604060002090600052602052604060002080548210156103a5576020916131f591613dd5565b346103a55761351e36613ce8565b90600091601261352e8284613f71565b116135755781925b6135408284613f71565b84101561356a579061356161355b613540936122d187613ed3565b946140aa565b93909150613536565b602090604051908152f35b60405162461bcd60e51b8152602060048201526011602482015270115e18d959591cc81b585e081b195d995b607a1b6044820152606490fd5b346103a55760003660031901126103a5576135ce60026000541415613f17565b600260005533600052602c602052604060002054801561365a57600080808093338252602c60205281604081205561360881601f54613f71565b601f55335af1613616614012565b5015613623576001600055005b60405162461bcd60e51b815260206004820152600f60248201526e15da5d1a191c985dc819985a5b1959608a1b6044820152606490fd5b60405162461bcd60e51b81526020600482015260136024820152724e6f7468696e6720746f20776974686472617760681b6044820152606490fd5b346103a5576136ac6136a636613ce8565b9061460c565b6040516020918282018383528151809152836040840192019360005b8281106136d55784840385f35b8551805185528083015185840152604080820151908601526060808201519086015260808082015115159086015260a0808201519086015260c090810151908501529481019460e0909301926001016136c8565b346103a55760203660031901126103a55760043560005260246020526020600560406000200154604051908152f35b346103a55760203660031901126103a55760043560128110156103a557602090600c0154604051908152f35b346103a55760203660031901126103a55760043560005260246020526020600660406000200154604051908152f35b346103a55760003660031901126103a5576020602154604051908152f35b346103a55760203660031901126103a5576004356023548110156103a55760209060236000527fd57b2b5166478fd4318d2acc6cc2c704584312bdd8781b32d5d06abda57f42300154604051908152f35b346103a55760003660031901126103a5576005546040516001600160a01b039091168152602090f35b346103a55760003660031901126103a55760208054604051908152f35b346103a5576080806003193601126103a557600435602491823560443592606435928160005260279260209380855260406000208260005285526040600020546138b28888613f71565b1015613b76576138c2865b614513565b938060005281865260406000208360005286526040600020546138e5888a613f71565b11613a1157600088975b6138f9818b613f71565b8910156139f657826000528388526040600020856000528852613920896040600020613dd5565b9054600391821b1c6000528b895260406000206139a760096040519261394584613f7e565b80546001600160a01b031684526001818101548e8601526002820154604086015294810154606085015260048101548b850152600581015460a0850152600681015460c0850152600781015460e0850152600881015461010085015201614577565b6101208201526139b7848a614563565b526139c28389614563565b5082018092116139e1576139d96138f992996140aa565b9891506138ef565b8a634e487b7160e01b60005260116004526000fd5b505050505050925050506119ca915060405191829182613d8c565b8096506000979594975280845260406000208260005284528460406000205411613a46575b5050505050506119ca91506120f7565b600096939495965b876000528186526040600020836000528652604060002054871015613b5e57876000528186526040600020836000528652613a8d876040600020613dd5565b9054600391821b1c6000528987526040600020613b14600960405192613ab284613f7e565b80546001600160a01b031684526001818101548c86015260028201546040860152948101546060850152600481015489850152600581015460a0850152600681015460c0850152600781015460e0850152600881015461010085015201614577565b610120820152613b248388614563565b52613b2f8287614563565b508101809111613b4957613b4390966140aa565b95613a4e565b88634e487b7160e01b60005260116004526000fd5b50505050925050506119ca9150828080808080613a36565b8360005280855260406000208260005285528660406000205411600014613bbb578360005280855260406000208260005285526138c26138bd88604060002054614061565b6138c26000614513565b346103a55760203660031901126103a5576004356000526024602052610120604060002060018060a01b03815416906001810154906002810154600382015460048301546005840154916006850154936008600787015496015496604051988952602089015260408801526060870152608086015260a085015260c084015260e0830152610100820152f35b346103a557613c5f36613ce8565b90613c7560018060a01b03602d54163314614858565b80151580613cc1575b15613c8b57600955600855005b60405162461bcd60e51b815260206004820152600e60248201526d496e76616c696420626f756e647360901b6044820152606490fd5b50808211613c7e565b346103a55760203660031901126103a5576020611d93600435614819565b60409060031901126103a5576004359060243590565b60018060a01b038151168252602090818101518284015260408101516040840152606081015160608401526080810151608084015260a081015160a084015260c081015160c084015260e081015160e084015261010080820151908401526101208091015192016000905b60128210613d775750505050565b82806001928651815201940191019092613d69565b6020908160408183019282815285518094520193019160005b828110613db3575050505090565b909192938261036082613dc96001948951613cfe565b01950193929101613da5565b805482101561129a5760005260206000200190600090565b601282101561129a570190600090565b60609060031901126103a557600435906024359060443590565b600435906001600160a01b03821682036103a557565b610240810192916000915b60128310613e4557505050565b600190825181526020809101920192019190613e38565b805482101561129a576000526007602060002091020190600090565b8115613e82570490565b634e487b7160e01b600052601260045260246000fd5b6006548015613ec757600c54906305f5e10091828102928184041490151715610b4e57613ec491613e78565b90565b5066038d7ea4c6800090565b600654908115613f0a57601281101561129a57600c0154906305f5e10091828102928184041490151715610b4e57613ec491613e78565b505066038d7ea4c6800090565b15613f1e57565b60405162461bcd60e51b815260206004820152601f60248201527f5265656e7472616e637947756172643a207265656e7472616e742063616c6c006044820152606490fd5b9060018201809211610b4e57565b91908201809211610b4e57565b610140810190811067ffffffffffffffff8211176112b057604052565b60e0810190811067ffffffffffffffff8211176112b057604052565b610240810190811067ffffffffffffffff8211176112b057604052565b6040810190811067ffffffffffffffff8211176112b057604052565b90601f8019910116810190811067ffffffffffffffff8211176112b057604052565b3d1561404d573d9067ffffffffffffffff82116112b05760405191614041601f8201601f191660200184613ff0565b82523d6000602084013e565b606090565b600019810191908211610b4e57565b91908203918211610b4e57565b1561407557565b60405162461bcd60e51b815260206004820152600d60248201526c1499599d5b990819985a5b1959609a1b6044820152606490fd5b6000198114610b4e5760010190565b90815491600160401b8310156112b057826140dc9160016140f595018155613dd5565b90919082549060031b91821b91600019901b1916179055565b565b8054600160401b8110156112b05761411491600182018155613e5c565b91909161416a5760c081600692518455602081015160018501556040810151600285015560608101516003850155600484016080820151151560ff8019835416911617905560a081015160058501550151910155565b634e487b7160e01b600052600060045260246000fd5b519069ffffffffffffffffffff821682036103a557565b6001546001600160a01b03908116806141ae575050565b60a060049160405192838092633fabe5a360e21b82525afa80600092839261430f575b50614208575050600154167f41e57ac49c36e9dca44816731da82ccae665194af5127030a6587554f05ed32c6020604051428152a2565b909150610e106142188242614061565b1161430b5760075410156142b75760008113156142b75760095481108015614300575b6142b7576006546000818311156142ba57506142578183614061565b61271090818102918183041490151715610b4e576107d09161427891613e78565b116142b7576040817f7bb53a16f0a956ec70e3aba1c9dcdd953de741292a17f213b0d38d24d6f476ba92600655426007558151908152426020820152a1565b50565b6142c48383614061565b90612710918281029281840414901517156142ec57506107d0916142e791613e78565b614278565b634e487b7160e01b81526011600452602490fd5b50600854811161423b565b5050565b9290915060a0833d8211614360575b8161432b60a09383613ff0565b8101031261435d575061433d82614180565b506020820151614354608060608501519401614180565b509190386141d1565b80fd5b3d915061431e565b81614371575050565b6001600160a01b03169081156143f3576000808080808587620186a0f1614396614012565b506143e0577fb2503b717e0cfe61e3bff7db554dc3de4c974103769f41e6a8ba35c1216f136a916040828560209452602c8452206143d5828254613f71565b9055604051908152a2565b506143ee9150601f54613f71565b601f55565b60405162461bcd60e51b815260206004820152600f60248201526e496e76616c6964206164647265737360881b6044820152606490fd5b81614433575050565b6001600160a01b0390808216614493575060025416908115614458576140f591614368565b60405162461bcd60e51b8152602060048201526013602482015272119959549958d95a5d995c881b9bdd081cd95d606a1b6044820152606490fd5b6140f5929150614368565b67ffffffffffffffff81116112b05760051b60200190565b604051906144c382613f7e565b8160008082528060208301528060408301528060608301528060808301528060a08301528060c08301528060e08301526101008201526101206040519161450983613fb7565b6102403684370152565b9061451d8261449e565b61452a6040519182613ff0565b828152809261453b601f199161449e565b019060005b82811061454c57505050565b6020906145576144b6565b82828501015201614540565b805182101561129a5760209160051b010190565b60405191906000835b60128210614594575050506140f582613fb7565b6001602081928554815201930191019091614580565b906040516145b781613f9b565b60c0600682948054845260018101546020850152600281015460408501526003810154606085015260ff60048201541615156080850152600581015460a08501520154910152565b8015610b4e576000190190565b9190600083815260269160209483865260408084209283549080821160001461481157935b84156147ba5750506146428361449e565b9461464f82519687613ff0565b838652601f1961465e8561449e565b01855b81811061477c57505061468894959697614679614a44565b93600196879587871115614a6b565b61469186614052565b9581895283835284892054955b6146af575b50505050505050505090565b8189528383526146d681868b20546146d16146c8614a44565b82841115614a6b565b614061565b861115614777578795828a52848452614717614711878c206147026146f9614a44565b858c1115614a6b565b61470b84614052565b90613e5c565b506145aa565b614721898d614563565b5261472c888c614563565b5087614742575b61473c906145ff565b9561469e565b96909192939495506000198101908111614763579587959493929190614733565b634e487b7160e01b89526011600452602489fd5b6146a3565b8990845161478981613f9b565b888152888382015288868201528860608201528860808201528860a08201528860c082015282828b01015201614661565b9492509450949591506147d86147cf8561449e565b95519586613ff0565b8385529182528082208185015b8484106147f457505050505090565b600783600192614803856145aa565b8152019201930192906147e5565b508093614631565b60005260246020526201518061484b60046040600020015461484561483c614a44565b42831115614a6b565b42614061565b614853614bd4565b500490565b1561485f57565b60405162461bcd60e51b81526020600482015260066024820152650eadcc2eae8d60d31b6044820152606490fd5b1561489457565b60405162461bcd60e51b815260206004820152601a60248201527f43616e6e6f742073657420746f207a65726f20616464726573730000000000006044820152606490fd5b156148e057565b60405162461bcd60e51b815260206004820152600c60248201526b5a65726f206164647265737360a01b6044820152606490fd5b1561491b57565b60405162461bcd60e51b815260206004820152600e60248201526d139bdd08105d5d1a1bdc9a5e995960921b6044820152606490fd5b1561495857565b60405162461bcd60e51b815260206004820152600e60248201526d139bd919481b9bdd08199bdd5b9960921b6044820152606490fd5b600052602460205260406000206040516149a781613f7e565b60018060a01b03825416815260018201549060208101918252600283015460408201526003830154606082015260048301546080820152610120614a18600960058601549560a08501968752600681015460c0860152600781015460e0860152600881015461010086015201614577565b9101525115614a3d57601291614a2e9151613f71565b11614a3857600190565b600090565b5050600090565b60405190614a5182613fd4565b600b82526a39bab13a3930b1ba34b7b760a91b6020830152565b15614a735750565b6040519062461bcd60e51b82528160208060048301528251908160248401526000935b828510614ab9575050604492506000838284010152601f80199101168101030190fd5b8481018201518686016044015293810193859350614a96565b8015614b30576101f4808202918083048203610b4e57614af29083613e78565b03614afa5790565b60405162461bcd60e51b815260206004820152600e60248201526d36bab63a34b83634b1b0ba34b7b760911b6044820152606490fd5b50600090565b8015614b3057612710808202918083048203610b4e57614af29083613e78565b8015614b30576103e8808202918083048203610b4e57614af29083613e78565b8015614b305761251c808202918083048203610b4e57614af29083613e78565b8015614b3057611b58808202918083048203610b4e57614af29083613e78565b908115614a3d57808202918083048203610b4e57614af29083613e78565b60405190614be182613fd4565b60088252673234bb34b9b4b7b760c11b602083015256fea7839e2eccb8001f62892d049b1bf56a499626712262b53c14c24f3777b7b0e3a2646970667358221220998c305722b242ced3aaae02ea91b2a1c339702baf98dd18ccb8bbc6ce3032e964736f6c63430008140033",
  "linkReferences": {},
  "deployedLinkReferences": {}
}