{
  "_format": "hh-sol-artifact-1",
  "contractName": "GreatIncomeClub",
  "sourceName": "contracts/GIClub.sol",
  "abi": [
    {
      "inputs": [
        {
          "internalType": "address",
          "name": "_firstUser",
          "type": "address"
        },
        {
          "internalType": "address",
          "name": "_feeReceiver",
          "type": "address"
        },
        {
          "internalType": "address",
          "name": "_rewardwallet",
          "type": "address"
        },
        {
          "internalType": "address",
          "name": "_adminwallet",
          "type": "address"
        },
        {
          "internalType": "address",
          "name": "_stablewallet",
          "type": "address"
        },
        {
          "internalType": "address",
          "name": "_owner",
          "type": "address"
        }
      ],
      "stateMutability": "nonpayable",
      "type": "constructor"
    },
    {
      "anonymous": false,
      "inputs": [
        {
          "indexed": true,
          "internalType": "uint256",
          "name": "addrType",
          "type": "uint256"
        },
        {
          "indexed": true,
          "internalType": "address",
          "name": "newAddress",
          "type": "address"
        },
        {
          "indexed": true,
          "internalType": "address",
          "name": "oldAddress",
          "type": "address"
        }
      ],
      "name": "AddressUpdated",
      "type": "event"
    },
    {
      "anonymous": false,
      "inputs": [
        {
          "indexed": true,
          "internalType": "address",
          "name": "user",
          "type": "address"
        },
        {
          "indexed": true,
          "internalType": "uint256",
          "name": "userId",
          "type": "uint256"
        },
        {
          "indexed": false,
          "internalType": "uint256",
          "name": "fromId",
          "type": "uint256"
        },
        {
          "indexed": false,
          "internalType": "uint256",
          "name": "layer",
          "type": "uint256"
        },
        {
          "indexed": false,
          "internalType": "uint256",
          "name": "amount",
          "type": "uint256"
        },
        {
          "indexed": false,
          "internalType": "uint256",
          "name": "time",
          "type": "uint256"
        },
        {
          "indexed": false,
          "internalType": "bool",
          "name": "isLost",
          "type": "bool"
        },
        {
          "indexed": false,
          "internalType": "uint256",
          "name": "incomeType",
          "type": "uint256"
        },
        {
          "indexed": false,
          "internalType": "uint256",
          "name": "level",
          "type": "uint256"
        }
      ],
      "name": "IncomeDetail",
      "type": "event"
    },
    {
      "anonymous": false,
      "inputs": [
        {
          "indexed": true,
          "internalType": "uint256",
          "name": "layerType",
          "type": "uint256"
        },
        {
          "indexed": false,
          "internalType": "uint256",
          "name": "oldValue",
          "type": "uint256"
        },
        {
          "indexed": false,
          "internalType": "uint256",
          "name": "newValue",
          "type": "uint256"
        }
      ],
      "name": "LayersUpdated",
      "type": "event"
    },
    {
      "anonymous": false,
      "inputs": [
        {
          "indexed": true,
          "internalType": "address",
          "name": "newAdmin",
          "type": "address"
        }
      ],
      "name": "MatrixAdminUpdated",
      "type": "event"
    },
    {
      "anonymous": false,
      "inputs": [
        {
          "indexed": true,
          "internalType": "address",
          "name": "previousOwner",
          "type": "address"
        },
        {
          "indexed": true,
          "internalType": "address",
          "name": "newOwner",
          "type": "address"
        }
      ],
      "name": "OwnershipTransferred",
      "type": "event"
    },
    {
      "anonymous": false,
      "inputs": [
        {
          "indexed": true,
          "internalType": "address",
          "name": "newAdmin",
          "type": "address"
        }
      ],
      "name": "PriceAdminUpdated",
      "type": "event"
    },
    {
      "anonymous": false,
      "inputs": [
        {
          "indexed": false,
          "internalType": "uint256",
          "name": "newPrice",
          "type": "uint256"
        },
        {
          "indexed": false,
          "internalType": "uint256",
          "name": "time",
          "type": "uint256"
        }
      ],
      "name": "PriceUpdate",
      "type": "event"
    },
    {
      "anonymous": false,
      "inputs": [
        {
          "indexed": true,
          "internalType": "address",
          "name": "user",
          "type": "address"
        },
        {
          "indexed": true,
          "internalType": "uint256",
          "name": "userId",
          "type": "uint256"
        },
        {
          "indexed": true,
          "internalType": "uint256",
          "name": "referrerId",
          "type": "uint256"
        },
        {
          "indexed": false,
          "internalType": "uint256",
          "name": "uplineId",
          "type": "uint256"
        }
      ],
      "name": "Registration",
      "type": "event"
    },
    {
      "anonymous": false,
      "inputs": [
        {
          "indexed": true,
          "internalType": "address",
          "name": "user",
          "type": "address"
        },
        {
          "indexed": true,
          "internalType": "uint256",
          "name": "userId",
          "type": "uint256"
        },
        {
          "indexed": false,
          "internalType": "uint256",
          "name": "packageId",
          "type": "uint256"
        }
      ],
      "name": "Upgrade",
      "type": "event"
    },
    {
      "inputs": [],
      "name": "bnbPrice",
      "outputs": [
        {
          "internalType": "uint256",
          "name": "",
          "type": "uint256"
        }
      ],
      "stateMutability": "view",
      "type": "function"
    },
    {
      "inputs": [
        {
          "internalType": "uint256",
          "name": "_userId",
          "type": "uint256"
        },
        {
          "internalType": "uint256",
          "name": "_levels",
          "type": "uint256"
        }
      ],
      "name": "canUpgrade",
      "outputs": [
        {
          "internalType": "bool",
          "name": "",
          "type": "bool"
        }
      ],
      "stateMutability": "view",
      "type": "function"
    },
    {
      "inputs": [],
      "name": "defaultRefer",
      "outputs": [
        {
          "internalType": "uint256",
          "name": "",
          "type": "uint256"
        }
      ],
      "stateMutability": "view",
      "type": "function"
    },
    {
      "inputs": [
        {
          "internalType": "uint256",
          "name": "",
          "type": "uint256"
        },
        {
          "internalType": "uint256",
          "name": "",
          "type": "uint256"
        },
        {
          "internalType": "uint256",
          "name": "",
          "type": "uint256"
        }
      ],
      "name": "downlineTeams",
      "outputs": [
        {
          "internalType": "uint256",
          "name": "",
          "type": "uint256"
        }
      ],
      "stateMutability": "view",
      "type": "function"
    },
    {
      "inputs": [],
      "name": "getConfig",
      "outputs": [
        {
          "internalType": "uint256",
          "name": "_defaultRefer",
          "type": "uint256"
        },
        {
          "internalType": "uint256",
          "name": "_totalUsers",
          "type": "uint256"
        },
        {
          "internalType": "uint256",
          "name": "_maxLayers",
          "type": "uint256"
        },
        {
          "internalType": "uint256",
          "name": "_bnbPrice",
          "type": "uint256"
        },
        {
          "internalType": "uint256",
          "name": "_lastUpdate",
          "type": "uint256"
        },
        {
          "internalType": "address",
          "name": "_owner",
          "type": "address"
        },
        {
          "internalType": "address",
          "name": "_priceAdmin",
          "type": "address"
        },
        {
          "internalType": "address",
          "name": "_matrixAdmin",
          "type": "address"
        },
        {
          "internalType": "address",
          "name": "_feeReceiver",
          "type": "address"
        },
        {
          "internalType": "address",
          "name": "_rewardWallet",
          "type": "address"
        },
        {
          "internalType": "address",
          "name": "_stableWallet",
          "type": "address"
        },
        {
          "internalType": "uint256",
          "name": "_maxAllowedPrice",
          "type": "uint256"
        },
        {
          "internalType": "uint256",
          "name": "_minAllowedPrice",
          "type": "uint256"
        }
      ],
      "stateMutability": "view",
      "type": "function"
    },
    {
      "inputs": [
        {
          "internalType": "uint256",
          "name": "_userId",
          "type": "uint256"
        }
      ],
      "name": "getDirectReferrals",
      "outputs": [
        {
          "internalType": "uint256",
          "name": "count",
          "type": "uint256"
        }
      ],
      "stateMutability": "view",
      "type": "function"
    },
    {
      "inputs": [
        {
          "internalType": "uint256",
          "name": "_user",
          "type": "uint256"
        },
        {
          "internalType": "uint256",
          "name": "_length",
          "type": "uint256"
        }
      ],
      "name": "getIncome",
      "outputs": [
        {
          "components": [
            {
              "internalType": "uint256",
              "name": "id",
              "type": "uint256"
            },
            {
              "internalType": "uint256",
              "name": "layer",
              "type": "uint256"
            },
            {
              "internalType": "uint256",
              "name": "amount",
              "type": "uint256"
            },
            {
              "internalType": "uint256",
              "name": "time",
              "type": "uint256"
            },
            {
              "internalType": "bool",
              "name": "isLost",
              "type": "bool"
            },
            {
              "internalType": "uint256",
              "name": "incomeType",
              "type": "uint256"
            },
            {
              "internalType": "uint256",
              "name": "level",
              "type": "uint256"
            }
          ],
          "internalType": "struct GreatIncomeClub.Income[]",
          "name": "",
          "type": "tuple[]"
        }
      ],
      "stateMutability": "view",
      "type": "function"
    },
    {
      "inputs": [
        {
          "internalType": "uint256",
          "name": "_userId",
          "type": "uint256"
        }
      ],
      "name": "getIncomeBreakdown",
      "outputs": [
        {
          "internalType": "uint256",
          "name": "total",
          "type": "uint256"
        },
        {
          "internalType": "uint256",
          "name": "referral",
          "type": "uint256"
        },
        {
          "internalType": "uint256",
          "name": "level",
          "type": "uint256"
        },
        {
          "internalType": "uint256",
          "name": "binary",
          "type": "uint256"
        },
        {
          "internalType": "uint256",
          "name": "direct",
          "type": "uint256"
        },
        {
          "internalType": "uint256",
          "name": "lost",
          "type": "uint256"
        }
      ],
      "stateMutability": "view",
      "type": "function"
    },
    {
      "inputs": [
        {
          "internalType": "uint256",
          "name": "_index",
          "type": "uint256"
        }
      ],
      "name": "getLevelCost",
      "outputs": [
        {
          "internalType": "uint256",
          "name": "",
          "type": "uint256"
        }
      ],
      "stateMutability": "view",
      "type": "function"
    },
    {
      "inputs": [
        {
          "internalType": "uint256",
          "name": "_id",
          "type": "uint256"
        }
      ],
      "name": "getLevelIncome",
      "outputs": [
        {
          "internalType": "uint256[25]",
          "name": "",
          "type": "uint256[25]"
        }
      ],
      "stateMutability": "view",
      "type": "function"
    },
    {
      "inputs": [],
      "name": "getLevels",
      "outputs": [
        {
          "internalType": "uint256[25]",
          "name": "_costs",
          "type": "uint256[25]"
        }
      ],
      "stateMutability": "view",
      "type": "function"
    },
    {
      "inputs": [
        {
          "internalType": "uint256",
          "name": "_user",
          "type": "uint256"
        }
      ],
      "name": "getMatrixDirect",
      "outputs": [
        {
          "internalType": "uint256[2]",
          "name": "_directs",
          "type": "uint256[2]"
        }
      ],
      "stateMutability": "view",
      "type": "function"
    },
    {
      "inputs": [
        {
          "internalType": "uint256",
          "name": "_userId",
          "type": "uint256"
        }
      ],
      "name": "getMatrixPosition",
      "outputs": [
        {
          "internalType": "uint256",
          "name": "uplineId",
          "type": "uint256"
        },
        {
          "internalType": "uint256",
          "name": "leftChild",
          "type": "uint256"
        },
        {
          "internalType": "uint256",
          "name": "rightChild",
          "type": "uint256"
        }
      ],
      "stateMutability": "view",
      "type": "function"
    },
    {
      "inputs": [
        {
          "internalType": "uint256",
          "name": "_user",
          "type": "uint256"
        },
        {
          "internalType": "uint256",
          "name": "_layer",
          "type": "uint256"
        },
        {
          "internalType": "uint256",
          "name": "_startIndex",
          "type": "uint256"
        },
        {
          "internalType": "uint256",
          "name": "_num",
          "type": "uint256"
        }
      ],
      "name": "getMatrixUsers",
      "outputs": [
        {
          "components": [
            {
              "internalType": "address",
              "name": "account",
              "type": "address"
            },
            {
              "internalType": "uint256",
              "name": "id",
              "type": "uint256"
            },
            {
              "internalType": "uint256",
              "name": "referrer",
              "type": "uint256"
            },
            {
              "internalType": "uint256",
              "name": "upline",
              "type": "uint256"
            },
            {
              "internalType": "uint256",
              "name": "start",
              "type": "uint256"
            },
            {
              "internalType": "uint256",
              "name": "level",
              "type": "uint256"
            },
            {
              "internalType": "uint256",
              "name": "directTeam",
              "type": "uint256"
            },
            {
              "internalType": "uint256",
              "name": "totalMatrixTeam",
              "type": "uint256"
            },
            {
              "internalType": "uint256",
              "name": "totalDeposit",
              "type": "uint256"
            },
            {
              "internalType": "uint256[25]",
              "name": "directTeamRanks",
              "type": "uint256[25]"
            }
          ],
          "internalType": "struct GreatIncomeClub.User[]",
          "name": "",
          "type": "tuple[]"
        }
      ],
      "stateMutability": "view",
      "type": "function"
    },
    {
      "inputs": [
        {
          "internalType": "uint256",
          "name": "_userId",
          "type": "uint256"
        }
      ],
      "name": "getPoolQualificationData",
      "outputs": [
        {
          "internalType": "uint256",
          "name": "totalDeposited",
          "type": "uint256"
        },
        {
          "internalType": "uint256",
          "name": "directReferrals",
          "type": "uint256"
        },
        {
          "internalType": "uint256",
          "name": "totalTeam",
          "type": "uint256"
        },
        {
          "internalType": "uint256",
          "name": "currentLevel",
          "type": "uint256"
        },
        {
          "internalType": "uint256",
          "name": "directTeamL1",
          "type": "uint256"
        },
        {
          "internalType": "uint256",
          "name": "matrixTeam",
          "type": "uint256"
        },
        {
          "internalType": "uint256",
          "name": "registrationTime",
          "type": "uint256"
        },
        {
          "internalType": "bool",
          "name": "isActive",
          "type": "bool"
        }
      ],
      "stateMutability": "view",
      "type": "function"
    },
    {
      "inputs": [
        {
          "internalType": "uint256",
          "name": "_userId",
          "type": "uint256"
        },
        {
          "internalType": "uint256",
          "name": "_depth",
          "type": "uint256"
        }
      ],
      "name": "getTeamSize",
      "outputs": [
        {
          "internalType": "uint256",
          "name": "",
          "type": "uint256"
        }
      ],
      "stateMutability": "view",
      "type": "function"
    },
    {
      "inputs": [
        {
          "internalType": "uint256",
          "name": "_user",
          "type": "uint256"
        },
        {
          "internalType": "uint256",
          "name": "_layer",
          "type": "uint256"
        },
        {
          "internalType": "uint256",
          "name": "_num",
          "type": "uint256"
        }
      ],
      "name": "getTeamUsers",
      "outputs": [
        {
          "components": [
            {
              "internalType": "address",
              "name": "account",
              "type": "address"
            },
            {
              "internalType": "uint256",
              "name": "id",
              "type": "uint256"
            },
            {
              "internalType": "uint256",
              "name": "referrer",
              "type": "uint256"
            },
            {
              "internalType": "uint256",
              "name": "upline",
              "type": "uint256"
            },
            {
              "internalType": "uint256",
              "name": "start",
              "type": "uint256"
            },
            {
              "internalType": "uint256",
              "name": "level",
              "type": "uint256"
            },
            {
              "internalType": "uint256",
              "name": "directTeam",
              "type": "uint256"
            },
            {
              "internalType": "uint256",
              "name": "totalMatrixTeam",
              "type": "uint256"
            },
            {
              "internalType": "uint256",
              "name": "totalDeposit",
              "type": "uint256"
            },
            {
              "internalType": "uint256[25]",
              "name": "directTeamRanks",
              "type": "uint256[25]"
            }
          ],
          "internalType": "struct GreatIncomeClub.User[]",
          "name": "",
          "type": "tuple[]"
        }
      ],
      "stateMutability": "view",
      "type": "function"
    },
    {
      "inputs": [
        {
          "internalType": "uint256",
          "name": "_userId",
          "type": "uint256"
        }
      ],
      "name": "getTotalIncome",
      "outputs": [
        {
          "internalType": "uint256",
          "name": "",
          "type": "uint256"
        }
      ],
      "stateMutability": "view",
      "type": "function"
    },
    {
      "inputs": [
        {
          "internalType": "uint256",
          "name": "_fromLevel",
          "type": "uint256"
        },
        {
          "internalType": "uint256",
          "name": "_levels",
          "type": "uint256"
        }
      ],
      "name": "getUpgradeCost",
      "outputs": [
        {
          "internalType": "uint256",
          "name": "totalCost",
          "type": "uint256"
        }
      ],
      "stateMutability": "view",
      "type": "function"
    },
    {
      "inputs": [
        {
          "internalType": "address",
          "name": "_addr",
          "type": "address"
        }
      ],
      "name": "getUserByAddress",
      "outputs": [
        {
          "components": [
            {
              "internalType": "address",
              "name": "account",
              "type": "address"
            },
            {
              "internalType": "uint256",
              "name": "id",
              "type": "uint256"
            },
            {
              "internalType": "uint256",
              "name": "referrer",
              "type": "uint256"
            },
            {
              "internalType": "uint256",
              "name": "upline",
              "type": "uint256"
            },
            {
              "internalType": "uint256",
              "name": "start",
              "type": "uint256"
            },
            {
              "internalType": "uint256",
              "name": "level",
              "type": "uint256"
            },
            {
              "internalType": "uint256",
              "name": "directTeam",
              "type": "uint256"
            },
            {
              "internalType": "uint256",
              "name": "totalMatrixTeam",
              "type": "uint256"
            },
            {
              "internalType": "uint256",
              "name": "totalDeposit",
              "type": "uint256"
            },
            {
              "internalType": "uint256[25]",
              "name": "directTeamRanks",
              "type": "uint256[25]"
            }
          ],
          "internalType": "struct GreatIncomeClub.User",
          "name": "",
          "type": "tuple"
        }
      ],
      "stateMutability": "view",
      "type": "function"
    },
    {
      "inputs": [
        {
          "internalType": "uint256",
          "name": "_user",
          "type": "uint256"
        }
      ],
      "name": "getUserCurDay",
      "outputs": [
        {
          "internalType": "uint256",
          "name": "",
          "type": "uint256"
        }
      ],
      "stateMutability": "view",
      "type": "function"
    },
    {
      "inputs": [
        {
          "internalType": "uint256",
          "name": "_userId",
          "type": "uint256"
        }
      ],
      "name": "getUserLevel",
      "outputs": [
        {
          "internalType": "uint256",
          "name": "",
          "type": "uint256"
        }
      ],
      "stateMutability": "view",
      "type": "function"
    },
    {
      "inputs": [
        {
          "internalType": "uint256",
          "name": "_userId",
          "type": "uint256"
        }
      ],
      "name": "getUserStats",
      "outputs": [
        {
          "internalType": "uint256",
          "name": "level",
          "type": "uint256"
        },
        {
          "internalType": "uint256",
          "name": "directCount",
          "type": "uint256"
        },
        {
          "internalType": "uint256",
          "name": "matrixCount",
          "type": "uint256"
        },
        {
          "internalType": "uint256",
          "name": "totalIncome",
          "type": "uint256"
        },
        {
          "internalType": "uint256",
          "name": "totalDeposit",
          "type": "uint256"
        },
        {
          "internalType": "uint256",
          "name": "daysActive",
          "type": "uint256"
        }
      ],
      "stateMutability": "view",
      "type": "function"
    },
    {
      "inputs": [
        {
          "internalType": "uint256",
          "name": "",
          "type": "uint256"
        }
      ],
      "name": "globalUsers",
      "outputs": [
        {
          "internalType": "uint256",
          "name": "",
          "type": "uint256"
        }
      ],
      "stateMutability": "view",
      "type": "function"
    },
    {
      "inputs": [
        {
          "internalType": "address",
          "name": "",
          "type": "address"
        }
      ],
      "name": "id",
      "outputs": [
        {
          "internalType": "uint256",
          "name": "",
          "type": "uint256"
        }
      ],
      "stateMutability": "view",
      "type": "function"
    },
    {
      "inputs": [
        {
          "internalType": "uint256",
          "name": "",
          "type": "uint256"
        },
        {
          "internalType": "uint256",
          "name": "",
          "type": "uint256"
        }
      ],
      "name": "incomeHistory",
      "outputs": [
        {
          "internalType": "uint256",
          "name": "id",
          "type": "uint256"
        },
        {
          "internalType": "uint256",
          "name": "layer",
          "type": "uint256"
        },
        {
          "internalType": "uint256",
          "name": "amount",
          "type": "uint256"
        },
        {
          "internalType": "uint256",
          "name": "time",
          "type": "uint256"
        },
        {
          "internalType": "bool",
          "name": "isLost",
          "type": "bool"
        },
        {
          "internalType": "uint256",
          "name": "incomeType",
          "type": "uint256"
        },
        {
          "internalType": "uint256",
          "name": "level",
          "type": "uint256"
        }
      ],
      "stateMutability": "view",
      "type": "function"
    },
    {
      "inputs": [
        {
          "internalType": "uint256",
          "name": "",
          "type": "uint256"
        }
      ],
      "name": "incomeInfo",
      "outputs": [
        {
          "internalType": "uint256",
          "name": "totalIncome",
          "type": "uint256"
        },
        {
          "internalType": "uint256",
          "name": "referralIncome",
          "type": "uint256"
        },
        {
          "internalType": "uint256",
          "name": "levelIncome",
          "type": "uint256"
        },
        {
          "internalType": "uint256",
          "name": "binaryIncome",
          "type": "uint256"
        },
        {
          "internalType": "uint256",
          "name": "directIncome",
          "type": "uint256"
        },
        {
          "internalType": "uint256",
          "name": "lostIncome",
          "type": "uint256"
        }
      ],
      "stateMutability": "view",
      "type": "function"
    },
    {
      "inputs": [],
      "name": "isOwnershipRenounced",
      "outputs": [
        {
          "internalType": "bool",
          "name": "",
          "type": "bool"
        }
      ],
      "stateMutability": "view",
      "type": "function"
    },
    {
      "inputs": [
        {
          "internalType": "address",
          "name": "user",
          "type": "address"
        }
      ],
      "name": "isUserAddressExists",
      "outputs": [
        {
          "internalType": "bool",
          "name": "",
          "type": "bool"
        }
      ],
      "stateMutability": "view",
      "type": "function"
    },
    {
      "inputs": [
        {
          "internalType": "uint256",
          "name": "userId",
          "type": "uint256"
        }
      ],
      "name": "isUserIdExists",
      "outputs": [
        {
          "internalType": "bool",
          "name": "",
          "type": "bool"
        }
      ],
      "stateMutability": "view",
      "type": "function"
    },
    {
      "inputs": [],
      "name": "lastPriceUpdate",
      "outputs": [
        {
          "internalType": "uint256",
          "name": "",
          "type": "uint256"
        }
      ],
      "stateMutability": "view",
      "type": "function"
    },
    {
      "inputs": [
        {
          "internalType": "uint256",
          "name": "",
          "type": "uint256"
        }
      ],
      "name": "levelPriceUSD",
      "outputs": [
        {
          "internalType": "uint256",
          "name": "",
          "type": "uint256"
        }
      ],
      "stateMutability": "view",
      "type": "function"
    },
    {
      "inputs": [
        {
          "internalType": "uint256",
          "name": "_newPrice",
          "type": "uint256"
        }
      ],
      "name": "manualUpdatePrice",
      "outputs": [],
      "stateMutability": "nonpayable",
      "type": "function"
    },
    {
      "inputs": [],
      "name": "matrixAdmin",
      "outputs": [
        {
          "internalType": "address",
          "name": "",
          "type": "address"
        }
      ],
      "stateMutability": "view",
      "type": "function"
    },
    {
      "inputs": [
        {
          "internalType": "uint256",
          "name": "",
          "type": "uint256"
        }
      ],
      "name": "matrixDirect",
      "outputs": [
        {
          "internalType": "uint256",
          "name": "",
          "type": "uint256"
        }
      ],
      "stateMutability": "view",
      "type": "function"
    },
    {
      "inputs": [],
      "name": "maxAllowedPrice",
      "outputs": [
        {
          "internalType": "uint256",
          "name": "",
          "type": "uint256"
        }
      ],
      "stateMutability": "view",
      "type": "function"
    },
    {
      "inputs": [],
      "name": "maxLayers",
      "outputs": [
        {
          "internalType": "uint256",
          "name": "",
          "type": "uint256"
        }
      ],
      "stateMutability": "view",
      "type": "function"
    },
    {
      "inputs": [],
      "name": "minAllowedPrice",
      "outputs": [
        {
          "internalType": "uint256",
          "name": "",
          "type": "uint256"
        }
      ],
      "stateMutability": "view",
      "type": "function"
    },
    {
      "inputs": [],
      "name": "owner",
      "outputs": [
        {
          "internalType": "address",
          "name": "",
          "type": "address"
        }
      ],
      "stateMutability": "view",
      "type": "function"
    },
    {
      "inputs": [],
      "name": "priceAdmin",
      "outputs": [
        {
          "internalType": "address",
          "name": "",
          "type": "address"
        }
      ],
      "stateMutability": "view",
      "type": "function"
    },
    {
      "inputs": [
        {
          "internalType": "uint256",
          "name": "_ref",
          "type": "uint256"
        }
      ],
      "name": "register",
      "outputs": [],
      "stateMutability": "payable",
      "type": "function"
    },
    {
      "inputs": [],
      "name": "renounceOwnership",
      "outputs": [],
      "stateMutability": "nonpayable",
      "type": "function"
    },
    {
      "inputs": [
        {
          "internalType": "uint256",
          "name": "_type",
          "type": "uint256"
        },
        {
          "internalType": "address",
          "name": "_new",
          "type": "address"
        },
        {
          "internalType": "uint256",
          "name": "_num",
          "type": "uint256"
        }
      ],
      "name": "setAddr",
      "outputs": [],
      "stateMutability": "nonpayable",
      "type": "function"
    },
    {
      "inputs": [
        {
          "internalType": "uint256",
          "name": "_min",
          "type": "uint256"
        },
        {
          "internalType": "uint256",
          "name": "_max",
          "type": "uint256"
        }
      ],
      "name": "setPriceBounds",
      "outputs": [],
      "stateMutability": "nonpayable",
      "type": "function"
    },
    {
      "inputs": [
        {
          "internalType": "uint256",
          "name": "",
          "type": "uint256"
        },
        {
          "internalType": "uint256",
          "name": "",
          "type": "uint256"
        },
        {
          "internalType": "uint256",
          "name": "",
          "type": "uint256"
        }
      ],
      "name": "teams",
      "outputs": [
        {
          "internalType": "uint256",
          "name": "",
          "type": "uint256"
        }
      ],
      "stateMutability": "view",
      "type": "function"
    },
    {
      "inputs": [],
      "name": "totalUsers",
      "outputs": [
        {
          "internalType": "uint256",
          "name": "",
          "type": "uint256"
        }
      ],
      "stateMutability": "view",
      "type": "function"
    },
    {
      "inputs": [
        {
          "internalType": "address",
          "name": "_newOwner",
          "type": "address"
        }
      ],
      "name": "transferOwnership",
      "outputs": [],
      "stateMutability": "nonpayable",
      "type": "function"
    },
    {
      "inputs": [
        {
          "internalType": "uint256",
          "name": "_id",
          "type": "uint256"
        },
        {
          "internalType": "uint256",
          "name": "_toLvl",
          "type": "uint256"
        }
      ],
      "name": "upgrade",
      "outputs": [],
      "stateMutability": "payable",
      "type": "function"
    },
    {
      "inputs": [
        {
          "internalType": "uint256",
          "name": "",
          "type": "uint256"
        },
        {
          "internalType": "uint256",
          "name": "",
          "type": "uint256"
        }
      ],
      "name": "userDayIncome",
      "outputs": [
        {
          "internalType": "uint256",
          "name": "",
          "type": "uint256"
        }
      ],
      "stateMutability": "view",
      "type": "function"
    },
    {
      "inputs": [
        {
          "internalType": "uint256",
          "name": "",
          "type": "uint256"
        }
      ],
      "name": "userInfo",
      "outputs": [
        {
          "internalType": "address",
          "name": "account",
          "type": "address"
        },
        {
          "internalType": "uint256",
          "name": "id",
          "type": "uint256"
        },
        {
          "internalType": "uint256",
          "name": "referrer",
          "type": "uint256"
        },
        {
          "internalType": "uint256",
          "name": "upline",
          "type": "uint256"
        },
        {
          "internalType": "uint256",
          "name": "start",
          "type": "uint256"
        },
        {
          "internalType": "uint256",
          "name": "level",
          "type": "uint256"
        },
        {
          "internalType": "uint256",
          "name": "directTeam",
          "type": "uint256"
        },
        {
          "internalType": "uint256",
          "name": "totalMatrixTeam",
          "type": "uint256"
        },
        {
          "internalType": "uint256",
          "name": "totalDeposit",
          "type": "uint256"
        }
      ],
      "stateMutability": "view",
      "type": "function"
    },
    {
      "stateMutability": "payable",
      "type": "receive"
    }
  ],
  "bytecode": "0x64746a528800600a556402540be400600b556023600c55601e600d556103c0604052674563918244f4000060a09081526768155a43676e000060c05267d02ab486cedc000060e0526801a055690d9db8000061010052680340aad21b3b7000006101205268068155a43676e0000061014052680d02ab486cedc0000061016052681a055690d9db8000006101805268340aad21b3b70000006101a0526868155a43676e0000006101c05268d02ab486cedc0000006101e0526901a055690d9db800000061020052690340aad21b3b700000006102205269068155a43676e000000061024052690d02ab486cedc000000061026052691a055690d9db800000006102805269340aad21b3b7000000006102a0526968155a43676e000000006102c05269d02ab486cedc000000006102e0526a01a055690d9db800000000610300526a0340aad21b3b7000000000610320526a068155a43676e000000000610340526a0d02ab486cedc000000000610360526a1a055690d9db8000000000610380526a340aad21b3b700000000006103a0526200019f90600e906019620004f7565b50348015620001ad57600080fd5b506040516200554338038062005543833981016040819052620001d09162000579565b60016000818155603180546001600160a01b03199081166001600160a01b0386811691909117909255600680543390831681179091556007805483169091179055640df84758006008554260095561908760808190526002805483168b85161790556003805483168a8516179055600480548316898516179055600580548316888516179055918a16808452602f602090815260408520849055602990527fd3cde6c5470f91611775d1a53bb5fd81d37fc393d1e4743cc9716a98ceea0c8f8390557fd3cde6c5470f91611775d1a53bb5fd81d37fc393d1e4743cc9716a98ceea0c908490557fd3cde6c5470f91611775d1a53bb5fd81d37fc393d1e4743cc9716a98ceea0c918490557fd3cde6c5470f91611775d1a53bb5fd81d37fc393d1e4743cc9716a98ceea0c8e80549092161781556028805480860182559084527fe16da923a2d88192e5070f37b4571d58682c0d66212ec634d495f33de3f77ab501829055602780549294919391929091906200034e90849062000610565b9091555050600160058201554260048201556200036c600062000395565b81600801600082825462000381919062000610565b90915550620006c998505050505050505050565b6000600854600003620003b0575066038d7ea4c68000919050565b600854600090620003c7906402540be40062000408565b90506200040181620003fa670de0b6b3a7640000600e8760198110620003f157620003f162000626565b01549062000408565b9062000486565b9392505050565b6000826000036200041c5750600062000480565b60006200042a83856200063c565b90508262000439858362000656565b146200047d5760405162461bcd60e51b815260206004820152600e60248201526d36bab63a34b83634b1b0ba34b7b760911b60448201526064015b60405180910390fd5b90505b92915050565b60006200047d8383604051806040016040528060088152602001673234bb34b9b4b7b760c11b815250620004bb60201b60201c565b60008183620004df5760405162461bcd60e51b815260040162000474919062000679565b506000620004ee848662000656565b95945050505050565b826019810192821562000533579160200282015b828111156200053357825182906001600160581b03169055916020019190600101906200050b565b506200054192915062000545565b5090565b5b8082111562000541576000815560010162000546565b80516001600160a01b03811681146200057457600080fd5b919050565b60008060008060008060c087890312156200059357600080fd5b6200059e876200055c565b9550620005ae602088016200055c565b9450620005be604088016200055c565b9350620005ce606088016200055c565b9250620005de608088016200055c565b9150620005ee60a088016200055c565b90509295509295509295565b634e487b7160e01b600052601160045260246000fd5b80820180821115620004805762000480620005fa565b634e487b7160e01b600052603260045260246000fd5b8082028115828204841417620004805762000480620005fa565b6000826200067457634e487b7160e01b600052601260045260246000fd5b500490565b600060208083528351808285015260005b81811015620006a8578581018301518582016040015282016200068a565b506000604082860101526040601f19601f8301168501019250505092915050565b608051614e42620007016000396000818161083f01528181610a220152818161180001528181612eb20152612f350152614e426000f3fe6080604052600436106102cd5760003560e01c8063777373ef11610175578063aac6b121116100dc578063c9bee38411610095578063f0cc4ffb1161006f578063f0cc4ffb14610b23578063f207564e14610b43578063f2fde38b14610b56578063fd5993cf14610b7657600080fd5b8063c9bee38414610acd578063cab0fb7314610aed578063ce4cec7c14610b0357600080fd5b8063aac6b12114610968578063b051a4fa14610995578063bead167d146109b5578063bff1f9e1146109d5578063c3f909d4146109eb578063c5484daf14610aad57600080fd5b80638955defb1161012e5780638955defb1461088e5780638da5cb5b146108bb5780639f023eb6146108db578063a133245b146108fa578063a916705f14610910578063a91879211461093057600080fd5b8063777373ef1461075a5780637bd9ff021461077a5780637c9ff40b1461079a57806382492a761461081757806385a6327c1461082d57806388afbe3e1461086157600080fd5b80633ff868ea1161023457806357dda26a116101ed5780636949faeb116101c75780636949faeb146106cf57806369c212f6146106e557806370c8d77014610712578063715018a61461074557600080fd5b806357dda26a146106625780635aabf7f11461068257806366c8707a146106a257600080fd5b80633ff868ea14610500578063451450ec146105205780634830dfa5146105335780634bae1b871461055357806351d70bc41461058e578063576dde121461064c57600080fd5b80632277d533116102865780632277d533146103e3578063298073481461041b5780632b6e4da01461044b578063327b7d771461046b57806338f8fe83146104a35780633c6a34e0146104d357600080fd5b806301fd3bb2146102d957806303699d171461030f5780630c394a601461033d57806319b9dfb51461035f5780631e195c35146103815780632272c80b146103a157600080fd5b366102d457005b600080fd5b3480156102e557600080fd5b506102f96102f436600461484b565b610bd3565b604051610306919061490c565b60405180910390f35b34801561031b57600080fd5b5061032f61032a36600461484b565b610f76565b604051908152602001610306565b34801561034957600080fd5b50610352610fb4565b604051610306919061495b565b34801561036b57600080fd5b5061037f61037a36600461498d565b610ffe565b005b34801561038d57600080fd5b506102f961039c3660046149af565b611088565b3480156103ad57600080fd5b506103d36103bc3660046149e1565b600090815260296020526040902060010154151590565b6040519015158152602001610306565b3480156103ef57600080fd5b50600754610403906001600160a01b031681565b6040516001600160a01b039091168152602001610306565b34801561042757600080fd5b5061032f6104363660046149e1565b60009081526029602052604090206006015490565b34801561045757600080fd5b5061032f6104663660046149e1565b611451565b34801561047757600080fd5b506103d3610486366004614a16565b6001600160a01b03166000908152602f6020526040902054151590565b3480156104af57600080fd5b5061032f6104be3660046149e1565b60009081526029602052604090206005015490565b3480156104df57600080fd5b506104f36104ee36600461498d565b6114ba565b6040516103069190614a31565b34801561050c57600080fd5b5061032f61051b3660046149e1565b611754565b61037f61052e36600461498d565b611775565b34801561053f57600080fd5b5061032f61054e36600461498d565b611e0f565b34801561055f57600080fd5b5061057361056e3660046149e1565b611e99565b60408051938452602084019290925290820152606001610306565b34801561059a57600080fd5b506105fe6105a93660046149e1565b6029602052600090815260409020805460018201546002830154600384015460048501546005860154600687015460078801546008909801546001600160a01b03909716979596949593949293919290919089565b604080516001600160a01b03909a168a5260208a0198909852968801959095526060870193909352608086019190915260a085015260c084015260e083015261010082015261012001610306565b34801561065857600080fd5b5061032f60085481565b34801561066e57600080fd5b50600654610403906001600160a01b031681565b34801561068e57600080fd5b5061032f61069d36600461484b565b612019565b3480156106ae57600080fd5b5061032f6106bd3660046149e1565b6000908152602a602052604090205490565b3480156106db57600080fd5b5061032f60095481565b3480156106f157600080fd5b50610705610700366004614a16565b612041565b6040516103069190614ab5565b34801561071e57600080fd5b5061073261072d36600461498d565b612161565b6040516103069796959493929190614ac4565b34801561075157600080fd5b5061037f6121c1565b34801561076657600080fd5b506103d361077536600461498d565b61225a565b34801561078657600080fd5b5061037f6107953660046149e1565b612353565b3480156107a657600080fd5b506107ea6107b53660046149e1565b602a60205260009081526040902080546001820154600283015460038401546004850154600590950154939492939192909186565b604080519687526020870195909552938501929092526060840152608083015260a082015260c001610306565b34801561082357600080fd5b5061032f600c5481565b34801561083957600080fd5b5061032f7f000000000000000000000000000000000000000000000000000000000000000081565b34801561086d57600080fd5b5061032f61087c3660046149e1565b602e6020526000908152604090205481565b34801561089a57600080fd5b5061032f6108a9366004614a16565b602f6020526000908152604090205481565b3480156108c757600080fd5b50603154610403906001600160a01b031681565b3480156108e757600080fd5b506031546001600160a01b0316156103d3565b34801561090657600080fd5b5061032f600b5481565b34801561091c57600080fd5b506107ea61092b3660046149e1565b6124c6565b34801561093c57600080fd5b5061032f61094b36600461498d565b603060209081526000928352604080842090915290825290205481565b34801561097457600080fd5b506109886109833660046149e1565b612628565b6040516103069190614af6565b3480156109a157600080fd5b506103526109b03660046149e1565b6126b9565b3480156109c157600080fd5b506107ea6109d03660046149e1565b612709565b3480156109e157600080fd5b5061032f60275481565b3480156109f757600080fd5b50602754600c54600854600954603154600654600754600254600354600554600a54600b54604080517f00000000000000000000000000000000000000000000000000000000000000008152602081019d909d528c019a909a5260608b019890985260808a01969096526001600160a01b0394851660a08a015292841660c089015290831660e088015282166101008701528116610120860152166101408401526101608301526101808201526101a001610306565b348015610ab957600080fd5b5061032f610ac83660046149e1565b6127d2565b348015610ad957600080fd5b5061037f610ae8366004614b1e565b6127e9565b348015610af957600080fd5b5061032f600a5481565b348015610b0f57600080fd5b5061032f610b1e3660046149e1565b612d71565b348015610b2f57600080fd5b5061032f610b3e36600461498d565b612d97565b61037f610b513660046149e1565b612dce565b348015610b6257600080fd5b5061037f610b71366004614a16565b6134ff565b348015610b8257600080fd5b50610b96610b913660046149e1565b6135e1565b604080519889526020890197909752958701949094526060860192909252608085015260a084015260c0830152151560e082015261010001610306565b6000838152602d60209081526040808320858452909152812054606091908310610c16576000858152602d60209081526040808320878452909152902054610c18565b825b67ffffffffffffffff811115610c3057610c30614b53565b604051908082528060200260200182016040528015610c6957816020015b610c566147ad565b815260200190600190039081610c4e5790505b506000868152602d60209081526040808320888452909152902054909150831015610e13576000858152602d602090815260408083208784529091528120545b6000878152602d60209081526040808320898452909152902054610cce908690614b7f565b811115610e0c576000878152602d60209081526040808320898452909152812060299190610cfd600185614b7f565b81548110610d0d57610d0d614b92565b60009182526020808320909101548352828101939093526040918201902081516101408101835281546001600160a01b031681526001820154938101939093526002810154838301526003810154606084015260048101546080840152600581015460a0840152600681015460c0840152600781015460e0840152600881015461010084015281516103208101909252906101208301906009830160198282826020028201915b815481526020019060010190808311610db457505050505081525050838381518110610de257610de2614b92565b6020908102919091010152610df8600183614ba8565b915080610e0481614bbb565b915050610ca9565b5050610f6e565b6000858152602d602090815260408083208784529091528120545b8015610f6b576000878152602d60209081526040808320898452909152812060299190610e5c600185614b7f565b81548110610e6c57610e6c614b92565b60009182526020808320909101548352828101939093526040918201902081516101408101835281546001600160a01b031681526001820154938101939093526002810154838301526003810154606084015260048101546080840152600581015460a0840152600681015460c0840152600781015460e0840152600881015461010084015281516103208101909252906101208301906009830160198282826020028201915b815481526020019060010190808311610f1357505050505081525050838381518110610f4157610f41614b92565b6020908102919091010152610f57600183614ba8565b915080610f6381614bbb565b915050610e2e565b50505b949350505050565b602d6020528260005260406000206020528160005260406000208181548110610f9e57600080fd5b9060005260206000200160009250925050505481565b610fbc61480e565b60005b6019811015610ffa57610fd181611451565b828260198110610fe357610fe3614b92565b602002015280610ff281614bd2565b915050610fbf565b5090565b6031546001600160a01b031633146110315760405162461bcd60e51b815260040161102890614beb565b60405180910390fd5b60008211801561104057508181115b61107d5760405162461bcd60e51b815260206004820152600e60248201526d496e76616c696420626f756e647360901b6044820152606401611028565b600b91909155600a55565b606060006110968484614ba8565b6000878152602c6020908152604080832089845290915290205411611106576000868152602c6020908152604080832088845290915290205484106110dc576000611108565b6000868152602c60209081526040808320888452909152902054611101908590614b7f565b611108565b825b67ffffffffffffffff81111561112057611120614b53565b60405190808252806020026020018201604052801561115957816020015b6111466147ad565b81526020019060019003908161113e5790505b5090506111668385614ba8565b6000878152602c60209081526040808320898452909152902054106112d0576000845b6111938587614ba8565b8110156112c9576000888152602c602090815260408083208a8452909152812080546029929190849081106111ca576111ca614b92565b60009182526020808320909101548352828101939093526040918201902081516101408101835281546001600160a01b031681526001820154938101939093526002810154838301526003810154606084015260048101546080840152600581015460a0840152600681015460c0840152600781015460e0840152600881015461010084015281516103208101909252906101208301906009830160198282826020028201915b8154815260200190600101908083116112715750505050508152505083838151811061129f5761129f614b92565b60209081029190910101526112b5600183614ba8565b9150806112c181614bd2565b915050611189565b5050611448565b6000868152602c60209081526040808320888452909152902054841015611448576000845b6000888152602c602090815260408083208a8452909152902054811015611445576000888152602c602090815260408083208a84529091528120805460299291908490811061134657611346614b92565b60009182526020808320909101548352828101939093526040918201902081516101408101835281546001600160a01b031681526001820154938101939093526002810154838301526003810154606084015260048101546080840152600581015460a0840152600681015460c0840152600781015460e0840152600881015461010084015281516103208101909252906101208301906009830160198282826020028201915b8154815260200190600101908083116113ed5750505050508152505083838151811061141b5761141b614b92565b6020908102919091010152611431600183614ba8565b91508061143d81614bd2565b9150506112f5565b50505b95945050505050565b600060085460000361146b575066038d7ea4c68000919050565b600854600090611480906402540be400613711565b90506114b3816114ad670de0b6b3a7640000600e87601981106114a5576114a5614b92565b015490613711565b9061377a565b9392505050565b6000828152602b60205260408120546060919083106114e7576000848152602b60205260409020546114e9565b825b905080156116a05760008167ffffffffffffffff81111561150c5761150c614b53565b60405190808252806020026020018201604052801561157f57816020015b61156c6040518060e001604052806000815260200160008152602001600081526020016000815260200160001515815260200160008152602001600081525090565b81526020019060019003908161152a5790505b509050600061158f8360016137a7565b6000878152602b60205260409020549091505b6000878152602b60205260409020546115bb90856137a7565b811115611694576000878152602b602052604090206115db8260016137a7565b815481106115eb576115eb614b92565b60009182526020918290206040805160e08101825260079093029091018054835260018101549383019390935260028301549082015260038201546060820152600482015460ff1615156080820152600582015460a082015260069091015460c0820152835184908490811061166357611663614b92565b602090810291909101015281156116825761167f600183614b7f565b91505b8061168c81614bbb565b9150506115a2565b5081935050505061174e565b6000848152602b6020908152604080832080548251818502810185019093528083529193909284015b828210156117405760008481526020908190206040805160e08101825260078602909201805483526001808201548486015260028201549284019290925260038101546060840152600481015460ff1615156080840152600581015460a08401526006015460c083015290835290920191016116c9565b5050505091505061174e565b505b92915050565b6028818154811061176457600080fd5b600091825260209091200154905081565b6002600054036117c75760405162461bcd60e51b815260206004820152601f60248201527f5265656e7472616e637947756172643a207265656e7472616e742063616c6c006044820152606401611028565b60026000556009546117dc9062015180614ba8565b4211156117eb576117eb6137d7565b600082815260296020526040812060018101547f0000000000000000000000000000000000000000000000000000000000000000851492036118655760405162461bcd60e51b8152602060048201526013602482015272155cd95c881b9bdd081c9959da5cdd195c9959606a1b6044820152606401611028565b806005015483116118c95760405162461bcd60e51b815260206004820152602860248201527f546172676574206c6576656c206d75737420626520686967686572207468616e6044820152670818dd5c9c995b9d60c21b6064820152608401611028565b601983111561191a5760405162461bcd60e51b815260206004820152601c60248201527f546172676574206c6576656c2065786365656473206d6178696d756d000000006044820152606401611028565b6005810154600061192b8286614b7f565b90506000825b61193b8385614ba8565b8110156119695761194b81611451565b6119559083614ba8565b91508061196181614bd2565b915050611931565b50846119f357803410156119b35760405162461bcd60e51b8152602060048201526011602482015270496e76616c696420626e622056616c756560781b6044820152606401611028565b803411156119f357336108fc6119c98334614b7f565b6040518115909202916000818181858888f193505050501580156119f1573d6000803e3d6000fd5b505b84611a54576000611a0c6127106114ad846101f4613711565b90506000611a226127106114ad856101f4613711565b600354909150611a3b906001600160a01b03168361396f565b600554611a51906001600160a01b03168261396f565b50505b825b611a608385614ba8565b811015611dc6576000611a7282611451565b905060008660050154118015611a86575086155b15611d06576000611a9f6127106114ad84612328613711565b90506000611ab56127106114ad846103e8613711565b90506000611acb6127106114ad8461251c613711565b60028a0154600090815260296020526040902054909150611af5906001600160a01b0316826139f1565b602b60008a6002015481526020019081526020016000206040518060e001604052808b600101548152602001876001611b2e9190614ba8565b8152602080820186905242604080840191909152600060608085018290526001608080870182905260a09687018e905288548083018a5598845285842088516007909a02019889558786015191890191909155868401516002808a019190915591870151600389015586015160048801805460ff191691151591909117905593850151600587015560c090940151600690950194909455908c01548252602a90529081208054849290611be2908490614ba8565b909155505060028901546000908152602a602052604081206004018054849290611c0d908490614ba8565b909155505060028901546000908152602a6020526040902060058a015483916006019060198110611c4057611c40614b92565b016000828254611c509190614ba8565b9091555050600289015460008181526030602052604081208492909190611c7690612d71565b81526020019081526020016000206000828254611c939190614ba8565b9091555050600289015489546001808c01546001600160a01b0390921691600080516020614ded83398151915291611ccc908a90614ba8565b8642600060018d604051611ce69796959493929190614ac4565b60405180910390a3611cf88c86613b8f565b611d028c86614034565b5050505b6001866005016000828254611d1b9190614ba8565b9091555050600286015460009081526029602052604090206001906009018360198110611d4a57611d4a614b92565b016000828254611d5a9190614ba8565b9091555050600180870154875490916001600160a01b03909116907f13ea485b1d8135315e770779887880798ac429f039a7c5ca3ff5f6f99a95b58790611da2908690614ba8565b60405190815260200160405180910390a35080611dbe81614bd2565b915050611a56565b5080846008016000828254611ddb9190614ba8565b90915550504715611e015784611e0157600254611e01906001600160a01b0316476139f1565b505060016000555050505050565b60006019611e1d8385614ba8565b1115611e5f5760405162461bcd60e51b8152602060048201526011602482015270115e18d959591cc81b585e081b195d995b607a1b6044820152606401611028565b825b611e6b8385614ba8565b81101561174c57611e7b81611451565b611e859083614ba8565b915080611e9181614bd2565b915050611e61565b600081815260296020908152604080832081516101408101835281546001600160a01b031681526001820154938101939093526002810154838301526003810154606084015260048101546080840152600581015460a0840152600681015460c0840152600781015460e0840152600881015461010084015281516103208101928390528493849384939192610120840191600984019060199082845b815481526020019060010190808311611f36575050509190925250505060608101516000878152602c6020908152604080832083805290915290205490955090915015611fb5576000858152602c6020908152604080832083805290915281208054909190611fa757611fa7614b92565b906000526020600020015492505b6000858152602c6020908152604080832083805290915290205460011015612011576000858152602c6020908152604080832083805290915290208054600190811061200357612003614b92565b906000526020600020015491505b509193909250565b602c6020528260005260406000206020528160005260406000208181548110610f9e57600080fd5b6120496147ad565b6001600160a01b0382166000908152602f6020526040812054908190036120a35760405162461bcd60e51b815260206004820152600e60248201526d155cd95c881b9bdd08199bdd5b9960921b6044820152606401611028565b60008181526029602090815260409182902082516101408101845281546001600160a01b031681526001820154928101929092526002810154828401526003810154606083015260048101546080830152600581015460a0830152600681015460c0830152600781015460e08301526008810154610100830152825161032081019384905291929091610120840191600984019060199082845b81548152602001906001019080831161213d57505050505081525050915050919050565b602b602052816000526040600020818154811061217d57600080fd5b600091825260209091206007909102018054600182015460028301546003840154600485015460058601546006909601549497509295509093909260ff9092169187565b6031546001600160a01b0316331461220c5760405162461bcd60e51b815260206004820152600e60248201526d139bdd08105d5d1a1bdc9a5e995960921b6044820152606401611028565b603180546001600160a01b031981169091556040516001600160a01b039091169060009082907f8be0079c531659141344cd1fd0a4f28419497f9722a3daafe3b4186f6b6457e0908390a350565b600082815260296020908152604080832081516101408101835281546001600160a01b031681526001820154938101939093526002810154838301526003810154606084015260048101546080840152600581015460a0840152600681015460c0840152600781015460e08401526008810154610100840152815161032081019283905284939261012084019190600984019060199082845b8154815260200190600101908083116122f3575050505050815250509050806020015160000361232757600091505061174e565b6019838260a001516123399190614ba8565b111561234957600091505061174e565b5060019392505050565b6006546001600160a01b0316331461237d5760405162461bcd60e51b815260040161102890614beb565b600b5481101580156123915750600a548111155b6123d35760405162461bcd60e51b81526020600482015260136024820152725072696365206f7574206f6620626f756e647360681b6044820152606401611028565b60006008548211612406576008546123eb8382614b7f565b6123f790612710614c0b565b6124019190614c22565b612429565b6008546124138184614b7f565b61241f90612710614c0b565b6124299190614c22565b905061138881111561247d5760405162461bcd60e51b815260206004820152601860248201527f4d617820353025206d616e75616c20646576696174696f6e00000000000000006044820152606401611028565b60088290554260098190556040805184815260208101929092527f92664190cca12aca9cd5309d87194bdda75bb51362d71c06e1a6f75c7c765711910160405180910390a15050565b600081815260296020908152604080832081516101408101835281546001600160a01b031681526001820154938101939093526002810154838301526003810154606084015260048101546080840152600581015460a0840152600681015460c0840152600781015460e084015260088101546101008401528151610320810192839052849384938493849384938493909291610120840191600984019060199082845b81548152602001906001019080831161256a57505050505081525050905080602001516000036125cd5760405162461bcd60e51b815260206004820152600e60248201526d155cd95c881b9bdd08199bdd5b9960921b6044820152606401611028565b60a081015160c082015160e083015160008b8152602a60205260409020546101008501516080860151949b509299509097509550935062015180906126129042614b7f565b61261c9190614c22565b91505091939550919395565b61263061482d565b60005b6000838152602c602090815260408083208380529091529020548110156126b3576000838152602c60209081526040808320838052909152902080548290811061267f5761267f614b92565b906000526020600020015482826002811061269c5761269c614b92565b6020020152806126ab81614bd2565b915050612633565b50919050565b6126c161480e565b6000828152602a6020526040908190208151610320810190925260060160198282826020028201915b8154815260200190600101908083116126ea5750505050509050919050565b6000818152602a60209081526040808320815160e081018352815481526001820154938101939093526002810154838301526003810154606084015260048101546080840152600581015460a0840152815161032081019283905284938493849384938493849390929160c0840191600684019060199082845b815481526020019060010190808311612783575050509190925250508151602083015160408401516060850151608086015160a090960151939e929d50909b5099509297509550909350505050565b600e81601981106127e257600080fd5b0154905081565b82600003612870576031546001600160a01b0316331461281b5760405162461bcd60e51b815260040161102890614beb565b600280546001600160a01b038481166001600160a01b03198316811790935560405191169182916000907f95c2e8f4bbff98f09d45b3c9d594928265cdf57754a9078f180e13045d7e9652908290a450505050565b826001036128f8576031546001600160a01b031633146128a25760405162461bcd60e51b815260040161102890614beb565b600380546001600160a01b038481166001600160a01b03198316811790935560405191169182916001907f95c2e8f4bbff98f09d45b3c9d594928265cdf57754a9078f180e13045d7e965290600090a450505050565b8260020361294a576031546001600160a01b0316331461292a5760405162461bcd60e51b815260040161102890614beb565b600480546001600160a01b0319166001600160a01b038416179055505050565b826003036129d2576031546001600160a01b0316331461297c5760405162461bcd60e51b815260040161102890614beb565b600580546001600160a01b038481166001600160a01b03198316811790935560405191169182916003907f95c2e8f4bbff98f09d45b3c9d594928265cdf57754a9078f180e13045d7e965290600090a450505050565b82600403612a4f576031546001600160a01b03163314612a045760405162461bcd60e51b815260040161102890614beb565b600d80549082905560408051828152602081018490526001917f2ab87283ed81972875a86f5516993b097f70184b82d9768e86d73c8b4fb589a891015b60405180910390a250505050565b82600503612af6576031546001600160a01b03163314612a815760405162461bcd60e51b815260040161102890614beb565b6001600160a01b0382166000908152602f602052604090205415612aa457600080fd5b6001600160a01b039182166000818152602f6020818152604080842086905585845260298083528185208054909816855292825283208390559390915290915281546001600160a01b03191617905550565b82600603612b69576007546001600160a01b03163314612b285760405162461bcd60e51b815260040161102890614beb565b600c80549082905560408051828152602081018490526000917f2ab87283ed81972875a86f5516993b097f70184b82d9768e86d73c8b4fb589a89101612a41565b82600703612c43576007546001600160a01b03163314612b9b5760405162461bcd60e51b815260040161102890614beb565b6001600160a01b038216612bf15760405162461bcd60e51b815260206004820152601a60248201527f43616e6e6f742073657420746f207a65726f20616464726573730000000000006044820152606401611028565b600780546001600160a01b038481166001600160a01b031983168117909355604051911691907f2cedadec57c2c6a9a781699377c5c4816d2e1cbcef4df5f527b49fd1a2be3e5190600090a250505050565b82600a03612d17576006546001600160a01b03163314612c755760405162461bcd60e51b815260040161102890614beb565b6001600160a01b038216612ccb5760405162461bcd60e51b815260206004820152601a60248201527f43616e6e6f742073657420746f207a65726f20616464726573730000000000006044820152606401611028565b600680546001600160a01b0319166001600160a01b0384169081179091556040517faa3270a59ea1adb2de13729b7fa3633d76135ec4d188edf0a829733d4c7fe6e390600090a2505050565b82600b03612d6c576006546001600160a01b03163314612d495760405162461bcd60e51b815260040161102890614beb565b600180546001600160a01b0319166001600160a01b038416179055612d6c6137d7565b505050565b60008181526029602052604081206004015461174e9062015180906114ad9042906137a7565b600060198210612db057612dad60016019614b7f565b91505b506000918252602d6020908152604080842092845291905290205490565b600260005403612e205760405162461bcd60e51b815260206004820152601f60248201527f5265656e7472616e637947756172643a207265656e7472616e742063616c6c006044820152606401611028565b6002600055600954612e359062015180614ba8565b421115612e4457612e446137d7565b336000908152602f602052604081205415612e965760405162461bcd60e51b8152602060048201526012602482015271105b1c9958591e48149959da5cdd195c995960721b6044820152606401611028565b600082815260296020526040902060040154151580612ed457507f000000000000000000000000000000000000000000000000000000000000000082145b612f135760405162461bcd60e51b815260206004820152601060248201526f24b73b30b634b2102932b332b93932b960811b6044820152606401611028565b60006027546001612f249190614ba8565b612f2f906007614c0b565b612f59907f0000000000000000000000000000000000000000000000000000000000000000614ba8565b336000908152602f602090815260408083208490558383526029909152812060018101839055919250612f8b81611451565b9050836130125780341015612fd25760405162461bcd60e51b815260206004820152600d60248201526c696e76616c69642076616c756560981b6044820152606401611028565b8034111561301257336108fc612fe88334614b7f565b6040518115909202916000818181858888f19350505050158015613010573d6000803e3d6000fd5b505b6002820185905581546001600160a01b03191633178255600085815260296020526040812060060180546001929061304b908490614ba8565b9091555050600282015460005b60198110156130b75781156130b7576000828152602d60209081526040808320848452825280832060018089015482549182018355918552838520015593825260299052919091206002015490806130af81614bd2565b915050613058565b50846133815760006130c96000611451565b905060006130df6127106114ad846101f4613711565b905060006130f56127106114ad856101f4613711565b60035490915061310e906001600160a01b03168361396f565b600554613124906001600160a01b03168261396f565b60006131386127106114ad86612328613711565b9050600061314e6127106114ad846103e8613711565b905060006131646127106114ad8461251c613711565b60028a015460009081526029602052604090205490915061318e906001600160a01b0316826139f1565b602b60008a6002015481526020019081526020016000206040518060e001604052808b6001015481526020016001815260200184815260200142815260200160001515815260200160008152602001600081525090806001815401808255809150506001900390600052602060002090600702016000909190919091506000820151816000015560208201518160010155604082015181600201556060820151816003015560808201518160040160006101000a81548160ff02191690831515021790555060a0820151816005015560c08201518160060155505081602a60008b60020154815260200190815260200160002060000160008282546132939190614ba8565b909155505060028901546000908152602a6020526040812060010180548492906132be908490614ba8565b909155505060028901546000908152602a6020526040812060060180548492906132e9908490614ba8565b909155505060028901546000818152603060205260408120849290919061330f90612d71565b8152602001908152602001600020600082825461332c9190614ba8565b9091555050600289015489546001808c01546040516001600160a01b0390931692600080516020614ded8339815191529261337292918890429060009081908190614ac4565b60405180910390a35050505050505b6001808401546028805492830181556000527fe16da923a2d88192e5070f37b4571d58682c0d66212ec634d495f33de3f77ab590910155602754156133d2576133d28360010154846002015461447b565b846133e6576133e683600101546000614034565b846133fa576133fa83600101546000613b8f565b4283600401819055506001602760008282546134169190614ba8565b9250508190555060018360050160008282546134329190614ba8565b9091555061344290506000611451565b8360080160008282546134559190614ba8565b9091555050600086815260296020526040812060090180546001929061347c908490614ba8565b909155505047156134a257846134a2576002546134a2906001600160a01b0316476139f1565b60028301546001840154845460038601546040519081526001600160a01b03909116907faa58599838af2e5e0f3251cfbb4eac5d5d447ded49f6b0ac28d6b44098224e639060200160405180910390a45050600160005550505050565b6031546001600160a01b0316331461354a5760405162461bcd60e51b815260206004820152600e60248201526d139bdd08105d5d1a1bdc9a5e995960921b6044820152606401611028565b6001600160a01b03811661358f5760405162461bcd60e51b815260206004820152600c60248201526b5a65726f206164647265737360a01b6044820152606401611028565b603180546001600160a01b038381166001600160a01b0319831681179093556040519116919082907f8be0079c531659141344cd1fd0a4f28419497f9722a3daafe3b4186f6b6457e090600090a35050565b600081815260296020908152604080832081516101408101835281546001600160a01b031681526001820154938101939093526002810154838301526003810154606084015260048101546080840152600581015460a0840152600681015460c0840152600781015460e08401526008810154610100840152815161032081019283905284938493849384938493849384938493909161012084019190600984019060199082845b815481526020019060010190808311613689575050509190925250505061010081015160c082015160008d8152602d6020908152604080832083805290915290205460a0840151610120850151939d50919b50995097509091506001602002015194508060e00151935080608001519250806020015160001415915050919395975091939597565b6000826000036137235750600061174e565b600061372f8385614c0b565b90508261373c8583614c22565b146114b35760405162461bcd60e51b815260206004820152600e60248201526d36bab63a34b83634b1b0ba34b7b760911b6044820152606401611028565b60006114b38383604051806040016040528060088152602001673234bb34b9b4b7b760c11b815250614704565b60006114b383836040518060400160405280600b81526020016a39bab13a3930b1ba34b7b760a91b815250614732565b6001546001600160a01b03161561396d57600160009054906101000a90046001600160a01b03166001600160a01b031663feaf968c6040518163ffffffff1660e01b815260040160a060405180830381865afa925050508015613857575060408051601f3d908101601f1916820190925261385491810190614c5e565b60015b1561396d57610e106138698342614b7f565b1115613876575050505050565b6009548211613886575050505050565b60008413613895575050505050565b600b5484908110806138a85750600a5481115b156138b557505050505050565b600060085482116138e8576008546138cd8382614b7f565b6138d990612710614c0b565b6138e39190614c22565b61390b565b6008546138f58184614b7f565b61390190612710614c0b565b61390b9190614c22565b90506107d08111156139205750505050505050565b60088290554260098190556040805184815260208101929092527f92664190cca12aca9cd5309d87194bdda75bb51362d71c06e1a6f75c7c765711910160405180910390a1505050505050505b565b80156139e7576001600160a01b0382166139eb576002546001600160a01b03166139d15760405162461bcd60e51b8152602060048201526013602482015272119959549958d95a5d995c881b9bdd081cd95d606a1b6044820152606401611028565b6002546139e7906001600160a01b0316826139f1565b5050565b6139e782825b80156139e7576001600160a01b038216613a3f5760405162461bcd60e51b815260206004820152600f60248201526e496e76616c6964206164647265737360881b6044820152606401611028565b6000826001600160a01b031682620186a090604051600060405180830381858888f193505050503d8060008114613a92576040519150601f19603f3d011682016040523d82523d6000602084013e613a97565b606091505b5050905080612d6c576002546001600160a01b0316613aee5760405162461bcd60e51b8152602060048201526013602482015272119959549958d95a5d995c881b9bdd081cd95d606a1b6044820152606401611028565b6002546040516000916001600160a01b031690620186a090859084818181858888f193505050503d8060008114613b41576040519150601f19603f3d011682016040523d82523d6000602084013e613b46565b606091505b5050905080613b895760405162461bcd60e51b815260206004820152600f60248201526e151c985b9cd9995c8819985a5b1959608a1b6044820152606401611028565b50505050565b600082815260296020526040812060020154905b6019811015613b8957801561400e578115613b8957600060058211613bca575060c8613bee565b600a8211613bda57506064613bee565b60188211613bea57506023613bee565b5060005b6000613c0b6127106114ad612328613c0589611451565b90613711565b90506000613c1f6127106114ad8486613711565b60008681526029602052604090206005015490915086108015613c5457506000858152602960205260409020600a0154600211155b15613ec7576000613c6d6127106114ad8461251c613711565b600087815260296020526040902054909150613c92906001600160a01b0316826139f1565b602b60008781526020019081526020016000206040518060e001604052808a8152602001876001613cc39190614ba8565b8152602001848152602001428152602001600015158152602001600281526020018981525090806001815401808255809150506001900390600052602060002090600702016000909190919091506000820151816000015560208201518160010155604082015181600201556060820151816003015560808201518160040160006101000a81548160ff02191690831515021790555060a0820151816005015560c08201518160060155505081602a60008881526020019081526020016000206000016000828254613d959190614ba8565b90915550506000859003613dcf576000868152602a602052604081206004018054849290613dc4908490614ba8565b90915550613df69050565b6000868152602a602052604081206002018054849290613df0908490614ba8565b90915550505b6000868152602a6020526040902082906006018860198110613e1a57613e1a614b92565b016000828254613e2a9190614ba8565b909155505060008681526030602052604081208391613e4889612d71565b81526020019081526020016000206000828254613e659190614ba8565b909155505060008881526029602052604090205486906001600160a01b0316600080516020614ded8339815191528a613e9f896001614ba8565b8642600060028f604051613eb99796959493929190614ac4565b60405180910390a35061400a565b602b60008681526020019081526020016000206040518060e00160405280898152602001866001613ef89190614ba8565b8152602080820185905242604080840191909152600160608085018290526002608080870182905260a09687018f905288548085018a556000998a52868a2089516007909202019081558887015194810194909455878501519184019190915590860151600383015585015160048201805460ff19169115159190911790559284015160058085019190915560c090940151600690930192909255888452602a90528220018054839290613fad908490614ba8565b909155505060008781526029602052604090205485906001600160a01b0316600080516020614ded83398151915289613fe7886001614ba8565b8542600160028e6040516140019796959493929190614ac4565b60405180910390a35b5050505b60009182526029602052604090912060020154908061402c81614bd2565b915050613ba3565b6000828152602960205260408120600301549082905b600d5461405c90613c05866001614763565b8110156144745782156144745781810361444e5760006140876127106114ad612328613c0589611451565b9050600061409d6127106114ad84611b58613711565b6000868152602960205260409020600501549091508610156142ed5760006140cd6127106114ad8461251c613711565b6000878152602960205260409020549091506140f2906001600160a01b0316826139f1565b6000868152602a602052604081208054849290614110908490614ba8565b90915550506000868152602a602052604081206003018054849290614136908490614ba8565b90915550506000868152602a602052604090208290600601886019811061415f5761415f614b92565b01600082825461416f9190614ba8565b90915550506000868152602b6020908152604091829020825160e081019093528a8352919081016141a1876001614ba8565b8152602001848152602001428152602001600015158152602001600381526020018981525090806001815401808255809150506001900390600052602060002090600702016000909190919091506000820151816000015560208201518160010155604082015181600201556060820151816003015560808201518160040160006101000a81548160ff02191690831515021790555060a0820151816005015560c0820151816006015550508160306000888152602001908152602001600020600061426c89612d71565b815260200190815260200160002060008282546142899190614ba8565b909155505060008881526029602052604090205486906001600160a01b0316600080516020614ded8339815191528a6142c3886001614ba8565b8642600060038f6040516142dd9796959493929190614ac4565b60405180910390a3505050614474565b838603614434576000858152602a602052604081206005018054839290614315908490614ba8565b90915550506000858152602b6020908152604091829020825160e0810190935289835291908101614347866001614ba8565b8152602080820185905242604080840191909152600160608085018290526003608080870182905260a09687018f905288548085018a556000998a52868a2089516007909202019081558887015181860155888601516002820155928801519183019190915586015160048201805460ff191691151591909117905593850151600585015560c0909401516006909301929092558a8452602990529091205486916001600160a01b0390911690600080516020614ded833981519152908a90614411908890614ba8565b8542600160038e60405161442b9796959493929190614ac4565b60405180910390a35b61443f866001614ba8565b6144499085614ba8565b935050505b60009283526029602052604090922060030154918061446c81614bd2565b91505061404a565b5050505050565b6000818152602e60205260408120548190600211156144d4576000848152602960209081526040808320600301869055858352602e90915281208054600192906144c6908490614ba8565b9091555083915061467d9050565b60005b600c548110156146125782614612576144f1816002614ba8565b6144fc906002614d92565b6000858152602c6020526040812090614516846001614ba8565b815260208101919091526040016000205410156146005760005b6000858152602c602090815260408083208584529091529020548110156145fe57836145fe576000858152602c60209081526040808320858452909152812080548390811061458157614581614b92565b906000526020600020015490506002602e60008381526020019081526020016000205410156145eb576000878152602960209081526040808320600301849055838352602e90915281208054600192906145dc908490614ba8565b92505081905550809350600194505b50806145f681614bd2565b915050614530565b505b8061460a81614bd2565b9150506144d7565b508060000361467d5760405162461bcd60e51b815260206004820152603160248201527f4d61747269782066756c6c202d20636f6e746163742061646d696e20746f20696044820152706e637265617365206d61784c617965727360781b6064820152608401611028565b60005b600c548110156144745781156144745760008281526029602052604081206007018054600192906146b2908490614ba8565b90915550506000828152602c60209081526040808320848452825280832080546001810182559084528284200188905593825260299052919091206003015490806146fc81614bd2565b915050614680565b600081836147255760405162461bcd60e51b81526004016110289190614d9e565b5060006114488486614c22565b600081848411156147565760405162461bcd60e51b81526004016110289190614d9e565b5060006114488486614b7f565b6000806147708385614ba8565b9050838110156114b35760405162461bcd60e51b815260206004820152600860248201526730b23234ba34b7b760c11b6044820152606401611028565b60405180610140016040528060006001600160a01b03168152602001600081526020016000815260200160008152602001600081526020016000815260200160008152602001600081526020016000815260200161480961480e565b905290565b6040518061032001604052806019906020820280368337509192915050565b60405180604001604052806002906020820280368337509192915050565b60008060006060848603121561486057600080fd5b505081359360208301359350604090920135919050565b8060005b6019811015613b8957815184526020938401939091019060010161487b565b80516001600160a01b031682526020810151602083015260408101516040830152606081015160608301526080810151608083015260a081015160a083015260c081015160c083015260e081015160e083015261010080820151818401525061012080820151613b8982850182614877565b6020808252825182820181905260009190848201906040850190845b8181101561494f5761493b83855161489a565b928401926104409290920191600101614928565b50909695505050505050565b6103208101818360005b6019811015614984578151835260209283019290910190600101614965565b50505092915050565b600080604083850312156149a057600080fd5b50508035926020909101359150565b600080600080608085870312156149c557600080fd5b5050823594602084013594506040840135936060013592509050565b6000602082840312156149f357600080fd5b5035919050565b80356001600160a01b0381168114614a1157600080fd5b919050565b600060208284031215614a2857600080fd5b6114b3826149fa565b602080825282518282018190526000919060409081850190868401855b82811015614aa857815180518552868101518786015285810151868601526060808201519086015260808082015115159086015260a0808201519086015260c0908101519085015260e09093019290850190600101614a4e565b5091979650505050505050565b610440810161174e828461489a565b9687526020870195909552604086019390935260608501919091521515608084015260a083015260c082015260e00190565b60408101818360005b6002811015614984578151835260209283019290910190600101614aff565b600080600060608486031215614b3357600080fd5b83359250614b43602085016149fa565b9150604084013590509250925092565b634e487b7160e01b600052604160045260246000fd5b634e487b7160e01b600052601160045260246000fd5b8181038181111561174e5761174e614b69565b634e487b7160e01b600052603260045260246000fd5b8082018082111561174e5761174e614b69565b600081614bca57614bca614b69565b506000190190565b600060018201614be457614be4614b69565b5060010190565b6020808252600690820152650eadcc2eae8d60d31b604082015260600190565b808202811582820484141761174e5761174e614b69565b600082614c3f57634e487b7160e01b600052601260045260246000fd5b500490565b805169ffffffffffffffffffff81168114614a1157600080fd5b600080600080600060a08688031215614c7657600080fd5b614c7f86614c44565b9450602086015193506040860151925060608601519150614ca260808701614c44565b90509295509295909350565b600181815b80851115614ce9578160001904821115614ccf57614ccf614b69565b80851615614cdc57918102915b93841c9390800290614cb3565b509250929050565b600082614d005750600161174e565b81614d0d5750600061174e565b8160018114614d235760028114614d2d57614d49565b600191505061174e565b60ff841115614d3e57614d3e614b69565b50506001821b61174e565b5060208310610133831016604e8410600b8410161715614d6c575081810a61174e565b614d768383614cae565b8060001904821115614d8a57614d8a614b69565b029392505050565b60006114b38383614cf1565b600060208083528351808285015260005b81811015614dcb57858101830151858201604001528201614daf565b506000604082860101526040601f19601f830116850101925050509291505056fe84fa129a9b7c0615bbe7362720e736d868d165dcc28a88f7e43e5e5839310411a26469706673582212202028fa0e161b40ce23264471dbbcbf3422f3cb0c68d098324ae02b3da382ac8064736f6c63430008140033",
  "linkReferences": {},
  "deployedLinkReferences": {}
}