{
  "_format": "hh-sol-artifact-1",
  "contractName": "RewardPool",
  "sourceName": "contracts/RewardPool.sol",
  "abi": [
    {
      "inputs": [
        {
          "internalType": "address",
          "name": "_engine",
          "type": "address"
        },
        {
          "internalType": "address",
          "name": "_owner",
          "type": "address"
        }
      ],
      "stateMutability": "nonpayable",
      "type": "constructor"
    },
    {
      "anonymous": false,
      "inputs": [
        {
          "indexed": true,
          "internalType": "uint256",
          "name": "nodeId",
          "type": "uint256"
        },
        {
          "indexed": true,
          "internalType": "address",
          "name": "wallet",
          "type": "address"
        },
        {
          "indexed": false,
          "internalType": "uint256",
          "name": "totalEarned",
          "type": "uint256"
        }
      ],
      "name": "CapReached",
      "type": "event"
    },
    {
      "anonymous": false,
      "inputs": [
        {
          "indexed": false,
          "internalType": "address",
          "name": "newEngine",
          "type": "address"
        }
      ],
      "name": "EngineUpdated",
      "type": "event"
    },
    {
      "anonymous": false,
      "inputs": [
        {
          "indexed": false,
          "internalType": "uint256",
          "name": "nodeId",
          "type": "uint256"
        },
        {
          "indexed": false,
          "internalType": "uint8",
          "name": "poolId",
          "type": "uint8"
        }
      ],
      "name": "NodeRegistered",
      "type": "event"
    },
    {
      "anonymous": false,
      "inputs": [
        {
          "indexed": false,
          "internalType": "address",
          "name": "newOwner",
          "type": "address"
        }
      ],
      "name": "OwnershipTransferred",
      "type": "event"
    },
    {
      "anonymous": false,
      "inputs": [
        {
          "indexed": false,
          "internalType": "uint256",
          "name": "amount",
          "type": "uint256"
        },
        {
          "indexed": false,
          "internalType": "uint256",
          "name": "bronze",
          "type": "uint256"
        },
        {
          "indexed": false,
          "internalType": "uint256",
          "name": "silver",
          "type": "uint256"
        },
        {
          "indexed": false,
          "internalType": "uint256",
          "name": "gold",
          "type": "uint256"
        },
        {
          "indexed": false,
          "internalType": "uint256",
          "name": "timestamp",
          "type": "uint256"
        }
      ],
      "name": "PoolReceived",
      "type": "event"
    },
    {
      "anonymous": false,
      "inputs": [
        {
          "indexed": false,
          "internalType": "uint256",
          "name": "nodeId",
          "type": "uint256"
        },
        {
          "indexed": false,
          "internalType": "uint8",
          "name": "fromPool",
          "type": "uint8"
        },
        {
          "indexed": false,
          "internalType": "uint8",
          "name": "toPool",
          "type": "uint8"
        },
        {
          "indexed": false,
          "internalType": "uint256",
          "name": "pendingCarried",
          "type": "uint256"
        }
      ],
      "name": "PoolTransition",
      "type": "event"
    },
    {
      "anonymous": false,
      "inputs": [
        {
          "indexed": false,
          "internalType": "uint256",
          "name": "nodeId",
          "type": "uint256"
        },
        {
          "indexed": false,
          "internalType": "address",
          "name": "wallet",
          "type": "address"
        },
        {
          "indexed": false,
          "internalType": "uint256",
          "name": "amount",
          "type": "uint256"
        }
      ],
      "name": "RewardClaimed",
      "type": "event"
    },
    {
      "anonymous": false,
      "inputs": [
        {
          "indexed": true,
          "internalType": "uint256",
          "name": "nodeId",
          "type": "uint256"
        },
        {
          "indexed": false,
          "internalType": "bool",
          "name": "status",
          "type": "bool"
        }
      ],
      "name": "SuperNodeUpdated",
      "type": "event"
    },
    {
      "inputs": [],
      "name": "BRONZE_CAP_MULT",
      "outputs": [
        {
          "internalType": "uint256",
          "name": "",
          "type": "uint256"
        }
      ],
      "stateMutability": "view",
      "type": "function"
    },
    {
      "inputs": [],
      "name": "BRONZE_MIN_DIRECT",
      "outputs": [
        {
          "internalType": "uint256",
          "name": "",
          "type": "uint256"
        }
      ],
      "stateMutability": "view",
      "type": "function"
    },
    {
      "inputs": [],
      "name": "BRONZE_MIN_TEAM",
      "outputs": [
        {
          "internalType": "uint256",
          "name": "",
          "type": "uint256"
        }
      ],
      "stateMutability": "view",
      "type": "function"
    },
    {
      "inputs": [],
      "name": "BRONZE_MIN_TIER",
      "outputs": [
        {
          "internalType": "uint256",
          "name": "",
          "type": "uint256"
        }
      ],
      "stateMutability": "view",
      "type": "function"
    },
    {
      "inputs": [],
      "name": "GOLD_CAP_MULT",
      "outputs": [
        {
          "internalType": "uint256",
          "name": "",
          "type": "uint256"
        }
      ],
      "stateMutability": "view",
      "type": "function"
    },
    {
      "inputs": [],
      "name": "GOLD_MIN_DIRECT",
      "outputs": [
        {
          "internalType": "uint256",
          "name": "",
          "type": "uint256"
        }
      ],
      "stateMutability": "view",
      "type": "function"
    },
    {
      "inputs": [],
      "name": "GOLD_MIN_TEAM",
      "outputs": [
        {
          "internalType": "uint256",
          "name": "",
          "type": "uint256"
        }
      ],
      "stateMutability": "view",
      "type": "function"
    },
    {
      "inputs": [],
      "name": "GOLD_MIN_TIER",
      "outputs": [
        {
          "internalType": "uint256",
          "name": "",
          "type": "uint256"
        }
      ],
      "stateMutability": "view",
      "type": "function"
    },
    {
      "inputs": [],
      "name": "SILVER_CAP_MULT",
      "outputs": [
        {
          "internalType": "uint256",
          "name": "",
          "type": "uint256"
        }
      ],
      "stateMutability": "view",
      "type": "function"
    },
    {
      "inputs": [],
      "name": "SILVER_MIN_DIRECT",
      "outputs": [
        {
          "internalType": "uint256",
          "name": "",
          "type": "uint256"
        }
      ],
      "stateMutability": "view",
      "type": "function"
    },
    {
      "inputs": [],
      "name": "SILVER_MIN_TEAM",
      "outputs": [
        {
          "internalType": "uint256",
          "name": "",
          "type": "uint256"
        }
      ],
      "stateMutability": "view",
      "type": "function"
    },
    {
      "inputs": [],
      "name": "SILVER_MIN_TIER",
      "outputs": [
        {
          "internalType": "uint256",
          "name": "",
          "type": "uint256"
        }
      ],
      "stateMutability": "view",
      "type": "function"
    },
    {
      "inputs": [],
      "name": "bronzeAccPerNode",
      "outputs": [
        {
          "internalType": "uint256",
          "name": "",
          "type": "uint256"
        }
      ],
      "stateMutability": "view",
      "type": "function"
    },
    {
      "inputs": [
        {
          "internalType": "uint256",
          "name": "",
          "type": "uint256"
        }
      ],
      "name": "bronzeDebt",
      "outputs": [
        {
          "internalType": "uint256",
          "name": "",
          "type": "uint256"
        }
      ],
      "stateMutability": "view",
      "type": "function"
    },
    {
      "inputs": [],
      "name": "bronzeNodes",
      "outputs": [
        {
          "internalType": "uint256",
          "name": "",
          "type": "uint256"
        }
      ],
      "stateMutability": "view",
      "type": "function"
    },
    {
      "inputs": [
        {
          "internalType": "uint256",
          "name": "nodeId",
          "type": "uint256"
        }
      ],
      "name": "claim",
      "outputs": [],
      "stateMutability": "nonpayable",
      "type": "function"
    },
    {
      "inputs": [],
      "name": "engine",
      "outputs": [
        {
          "internalType": "contract INodeFlowEngine",
          "name": "",
          "type": "address"
        }
      ],
      "stateMutability": "view",
      "type": "function"
    },
    {
      "inputs": [
        {
          "internalType": "uint256",
          "name": "nodeId",
          "type": "uint256"
        }
      ],
      "name": "getCapInfo",
      "outputs": [
        {
          "internalType": "uint256",
          "name": "capMultiplier",
          "type": "uint256"
        },
        {
          "internalType": "uint256",
          "name": "totalDeposited",
          "type": "uint256"
        },
        {
          "internalType": "uint256",
          "name": "lifetimeCap",
          "type": "uint256"
        },
        {
          "internalType": "uint256",
          "name": "claimed",
          "type": "uint256"
        },
        {
          "internalType": "uint256",
          "name": "remaining",
          "type": "uint256"
        }
      ],
      "stateMutability": "view",
      "type": "function"
    },
    {
      "inputs": [
        {
          "internalType": "uint256",
          "name": "nodeId",
          "type": "uint256"
        }
      ],
      "name": "getClaimable",
      "outputs": [
        {
          "internalType": "uint256",
          "name": "fromCurrentPool",
          "type": "uint256"
        },
        {
          "internalType": "uint256",
          "name": "fromExitedPools",
          "type": "uint256"
        },
        {
          "internalType": "uint256",
          "name": "total",
          "type": "uint256"
        }
      ],
      "stateMutability": "view",
      "type": "function"
    },
    {
      "inputs": [],
      "name": "getContractInfo",
      "outputs": [
        {
          "internalType": "uint256",
          "name": "_totalReceived",
          "type": "uint256"
        },
        {
          "internalType": "uint256",
          "name": "_totalDistributed",
          "type": "uint256"
        },
        {
          "internalType": "uint256",
          "name": "_pendingInContract",
          "type": "uint256"
        },
        {
          "internalType": "uint256",
          "name": "_bronzeNodes",
          "type": "uint256"
        },
        {
          "internalType": "uint256",
          "name": "_silverNodes",
          "type": "uint256"
        },
        {
          "internalType": "uint256",
          "name": "_goldNodes",
          "type": "uint256"
        },
        {
          "internalType": "address",
          "name": "_contractAddress",
          "type": "address"
        },
        {
          "internalType": "address",
          "name": "_engineAddress",
          "type": "address"
        }
      ],
      "stateMutability": "view",
      "type": "function"
    },
    {
      "inputs": [
        {
          "internalType": "uint256",
          "name": "nodeId",
          "type": "uint256"
        }
      ],
      "name": "getNodeInfo",
      "outputs": [
        {
          "internalType": "uint8",
          "name": "currentPool",
          "type": "uint8"
        },
        {
          "internalType": "string",
          "name": "poolName",
          "type": "string"
        },
        {
          "internalType": "uint256",
          "name": "nfeTier",
          "type": "uint256"
        },
        {
          "internalType": "uint256",
          "name": "claimable",
          "type": "uint256"
        },
        {
          "internalType": "uint256",
          "name": "lifetimeCap",
          "type": "uint256"
        },
        {
          "internalType": "uint256",
          "name": "lifetimeClaimed",
          "type": "uint256"
        },
        {
          "internalType": "uint256",
          "name": "capRemaining",
          "type": "uint256"
        },
        {
          "internalType": "bool",
          "name": "capReached",
          "type": "bool"
        },
        {
          "internalType": "uint256",
          "name": "totalDeposited",
          "type": "uint256"
        }
      ],
      "stateMutability": "view",
      "type": "function"
    },
    {
      "inputs": [
        {
          "internalType": "uint256",
          "name": "nodeId",
          "type": "uint256"
        }
      ],
      "name": "getPoolForNode",
      "outputs": [
        {
          "internalType": "uint8",
          "name": "",
          "type": "uint8"
        }
      ],
      "stateMutability": "view",
      "type": "function"
    },
    {
      "inputs": [
        {
          "internalType": "uint8",
          "name": "pool",
          "type": "uint8"
        }
      ],
      "name": "getPoolName",
      "outputs": [
        {
          "internalType": "string",
          "name": "",
          "type": "string"
        }
      ],
      "stateMutability": "pure",
      "type": "function"
    },
    {
      "inputs": [],
      "name": "getPoolStats",
      "outputs": [
        {
          "internalType": "uint256",
          "name": "_bronzeNodes",
          "type": "uint256"
        },
        {
          "internalType": "uint256",
          "name": "_silverNodes",
          "type": "uint256"
        },
        {
          "internalType": "uint256",
          "name": "_goldNodes",
          "type": "uint256"
        },
        {
          "internalType": "uint256",
          "name": "_bronzeAccPerNode",
          "type": "uint256"
        },
        {
          "internalType": "uint256",
          "name": "_silverAccPerNode",
          "type": "uint256"
        },
        {
          "internalType": "uint256",
          "name": "_goldAccPerNode",
          "type": "uint256"
        },
        {
          "internalType": "uint256",
          "name": "_totalReceived",
          "type": "uint256"
        },
        {
          "internalType": "uint256",
          "name": "_totalDistributed",
          "type": "uint256"
        }
      ],
      "stateMutability": "view",
      "type": "function"
    },
    {
      "inputs": [
        {
          "internalType": "uint256",
          "name": "nodeId",
          "type": "uint256"
        }
      ],
      "name": "getQualificationStatus",
      "outputs": [
        {
          "internalType": "uint8",
          "name": "currentPool",
          "type": "uint8"
        },
        {
          "internalType": "uint256",
          "name": "nfeTier",
          "type": "uint256"
        },
        {
          "internalType": "uint256",
          "name": "directRefs",
          "type": "uint256"
        },
        {
          "internalType": "uint256",
          "name": "matrixTeam",
          "type": "uint256"
        },
        {
          "internalType": "bool",
          "name": "bronzeQualified",
          "type": "bool"
        },
        {
          "internalType": "bool",
          "name": "silverQualified",
          "type": "bool"
        },
        {
          "internalType": "bool",
          "name": "goldQualified",
          "type": "bool"
        },
        {
          "internalType": "uint256",
          "name": "directNeededBronze",
          "type": "uint256"
        },
        {
          "internalType": "uint256",
          "name": "directNeededSilver",
          "type": "uint256"
        },
        {
          "internalType": "uint256",
          "name": "directNeededGold",
          "type": "uint256"
        },
        {
          "internalType": "uint256",
          "name": "teamNeededBronze",
          "type": "uint256"
        },
        {
          "internalType": "uint256",
          "name": "teamNeededSilver",
          "type": "uint256"
        },
        {
          "internalType": "uint256",
          "name": "teamNeededGold",
          "type": "uint256"
        }
      ],
      "stateMutability": "view",
      "type": "function"
    },
    {
      "inputs": [],
      "name": "goldAccPerNode",
      "outputs": [
        {
          "internalType": "uint256",
          "name": "",
          "type": "uint256"
        }
      ],
      "stateMutability": "view",
      "type": "function"
    },
    {
      "inputs": [
        {
          "internalType": "uint256",
          "name": "",
          "type": "uint256"
        }
      ],
      "name": "goldDebt",
      "outputs": [
        {
          "internalType": "uint256",
          "name": "",
          "type": "uint256"
        }
      ],
      "stateMutability": "view",
      "type": "function"
    },
    {
      "inputs": [],
      "name": "goldNodes",
      "outputs": [
        {
          "internalType": "uint256",
          "name": "",
          "type": "uint256"
        }
      ],
      "stateMutability": "view",
      "type": "function"
    },
    {
      "inputs": [
        {
          "internalType": "uint256",
          "name": "nodeId",
          "type": "uint256"
        }
      ],
      "name": "isCapReached",
      "outputs": [
        {
          "internalType": "bool",
          "name": "",
          "type": "bool"
        }
      ],
      "stateMutability": "view",
      "type": "function"
    },
    {
      "inputs": [
        {
          "internalType": "uint256",
          "name": "",
          "type": "uint256"
        }
      ],
      "name": "isSuperNode",
      "outputs": [
        {
          "internalType": "bool",
          "name": "",
          "type": "bool"
        }
      ],
      "stateMutability": "view",
      "type": "function"
    },
    {
      "inputs": [
        {
          "internalType": "uint256",
          "name": "",
          "type": "uint256"
        }
      ],
      "name": "nodePool",
      "outputs": [
        {
          "internalType": "uint8",
          "name": "",
          "type": "uint8"
        }
      ],
      "stateMutability": "view",
      "type": "function"
    },
    {
      "inputs": [],
      "name": "owner",
      "outputs": [
        {
          "internalType": "address",
          "name": "",
          "type": "address"
        }
      ],
      "stateMutability": "view",
      "type": "function"
    },
    {
      "inputs": [
        {
          "internalType": "uint256",
          "name": "",
          "type": "uint256"
        }
      ],
      "name": "pendingClaim",
      "outputs": [
        {
          "internalType": "uint256",
          "name": "",
          "type": "uint256"
        }
      ],
      "stateMutability": "view",
      "type": "function"
    },
    {
      "inputs": [
        {
          "internalType": "uint256",
          "name": "nodeId",
          "type": "uint256"
        }
      ],
      "name": "registerNode",
      "outputs": [],
      "stateMutability": "nonpayable",
      "type": "function"
    },
    {
      "inputs": [],
      "name": "residualBronze",
      "outputs": [
        {
          "internalType": "uint256",
          "name": "",
          "type": "uint256"
        }
      ],
      "stateMutability": "view",
      "type": "function"
    },
    {
      "inputs": [],
      "name": "residualGold",
      "outputs": [
        {
          "internalType": "uint256",
          "name": "",
          "type": "uint256"
        }
      ],
      "stateMutability": "view",
      "type": "function"
    },
    {
      "inputs": [],
      "name": "residualSilver",
      "outputs": [
        {
          "internalType": "uint256",
          "name": "",
          "type": "uint256"
        }
      ],
      "stateMutability": "view",
      "type": "function"
    },
    {
      "inputs": [
        {
          "internalType": "address",
          "name": "_engine",
          "type": "address"
        }
      ],
      "name": "setEngine",
      "outputs": [],
      "stateMutability": "nonpayable",
      "type": "function"
    },
    {
      "inputs": [
        {
          "internalType": "uint256",
          "name": "nodeId",
          "type": "uint256"
        },
        {
          "internalType": "bool",
          "name": "status",
          "type": "bool"
        }
      ],
      "name": "setSuperNode",
      "outputs": [],
      "stateMutability": "nonpayable",
      "type": "function"
    },
    {
      "inputs": [],
      "name": "silverAccPerNode",
      "outputs": [
        {
          "internalType": "uint256",
          "name": "",
          "type": "uint256"
        }
      ],
      "stateMutability": "view",
      "type": "function"
    },
    {
      "inputs": [
        {
          "internalType": "uint256",
          "name": "",
          "type": "uint256"
        }
      ],
      "name": "silverDebt",
      "outputs": [
        {
          "internalType": "uint256",
          "name": "",
          "type": "uint256"
        }
      ],
      "stateMutability": "view",
      "type": "function"
    },
    {
      "inputs": [],
      "name": "silverNodes",
      "outputs": [
        {
          "internalType": "uint256",
          "name": "",
          "type": "uint256"
        }
      ],
      "stateMutability": "view",
      "type": "function"
    },
    {
      "inputs": [
        {
          "internalType": "uint256",
          "name": "",
          "type": "uint256"
        }
      ],
      "name": "superRegistered",
      "outputs": [
        {
          "internalType": "bool",
          "name": "",
          "type": "bool"
        }
      ],
      "stateMutability": "view",
      "type": "function"
    },
    {
      "inputs": [
        {
          "internalType": "uint256",
          "name": "",
          "type": "uint256"
        }
      ],
      "name": "totalClaimed",
      "outputs": [
        {
          "internalType": "uint256",
          "name": "",
          "type": "uint256"
        }
      ],
      "stateMutability": "view",
      "type": "function"
    },
    {
      "inputs": [],
      "name": "totalDistributed",
      "outputs": [
        {
          "internalType": "uint256",
          "name": "",
          "type": "uint256"
        }
      ],
      "stateMutability": "view",
      "type": "function"
    },
    {
      "inputs": [],
      "name": "totalReceived",
      "outputs": [
        {
          "internalType": "uint256",
          "name": "",
          "type": "uint256"
        }
      ],
      "stateMutability": "view",
      "type": "function"
    },
    {
      "inputs": [
        {
          "internalType": "address",
          "name": "_new",
          "type": "address"
        }
      ],
      "name": "transferOwnership",
      "outputs": [],
      "stateMutability": "nonpayable",
      "type": "function"
    },
    {
      "stateMutability": "payable",
      "type": "receive"
    }
  ],
  "bytecode": "0x6080346200010657601f6200271438819003918201601f19168301916001600160401b038311848410176200010b57808492604094855283398101031262000106576200005a6020620000528362000121565b920162000121565b6001600160a01b0391821691908215620000d35716908115620000a15760018060a01b03199081600054161760005560015416176001556040516125dd9081620001378239f35b60405162461bcd60e51b815260206004820152600a6024820152692d32b9379037bbb732b960b11b6044820152606490fd5b60405162461bcd60e51b815260206004820152600b60248201526a5a65726f20656e67696e6560a81b6044820152606490fd5b600080fd5b634e487b7160e01b600052604160045260246000fd5b51906001600160a01b0382168203620001065756fe608060408181526004918236101561002a575b505050361561002057600080fd5b6100286110f7565b005b600092833560e01c918263012420ec14610d88575081630e830e4914610cdb578163120d1a4b14610cbc57816319310d6714610c935781631a60f4ef14610c775781631eaeaa1314610c4f5781632abf946114610c32578163379607f514610c155781633ee60c4614610bf657816344d4a54014610bda5781634ca0eecd14610aad578163534c5ca614610a8057816353e215f4146108715781635699cf18146107be5781636e3f6755146107a257816377f83869146107775781637cc1f867146107175781637f980edf146106f75781638192a99e146106db578163846a0095146106435781638da5cb5b1461061a578163913d4f2d1461026057816391ce1a1c146105ed57816391dd270b146105c557816398d2131d1461052b5781639c7e4a6614610593578163a3c2c46214610574578163a80e500d1461054c578163abe981de14610530578163acbfa09a1461052b578163bbb85188146104cf578163c6e8ddb5146104b0578163c7d0473514610260578163c832547f14610493578163c9d4623f1461046b578163d05f298f1461044c578163d403bf3414610406578163d4c52222146103e8578163d578540a146103c9578163d9d26ad7146103aa578163dd006ddb14610382578163e3de320b14610363578163eaab2c3f1461033b578163efca2eed1461031c578163f2fde38b1461026557508063f53d6463146102605763ff1723dd1461023f5780610012565b3461025c578160031936011261025c576020906007549051908152f35b5080fd5b611057565b91905034610318576020366003190112610318576001600160a01b03823581811693908490036103145761029f60015492831633146122cd565b83156102e257506001600160a01b0319168217600155519081527f04dba622d284ed0014ee4b9a6a68386be1a4c08a4913ae272de89199cc68616390602090a180f35b606490602084519162461bcd60e51b8352820152600c60248201526b5a65726f206164647265737360a01b6044820152fd5b8480fd5b8280fd5b50503461025c578160031936011261025c576020906011549051908152f35b905034610318576020366003190112610318576020928291358152600d845220549051908152f35b50503461025c578160031936011261025c576020906012549051908152f35b905034610318576020366003190112610318576020928291358152600a845220549051908152f35b50503461025c578160031936011261025c576020906006549051908152f35b50503461025c578160031936011261025c576020906002549051908152f35b90503461031857826003193601126103185760209250549051908152f35b90503461031857602036600319011261031857359160ff831683036104495750610432610445926123a9565b9051918291602083526020830190611017565b0390f35b80fd5b50503461025c578160031936011261025c576020906013549051908152f35b50503461025c578160031936011261025c57905490516001600160a01b039091168152602090f35b50503461025c578160031936011261025c5760209051617ffe8152f35b50503461025c578160031936011261025c576020906005549051908152f35b90503461031857826003193601126103185761010092506005549160065491600754906002546003549154926010549460115496815198895260208901528701526060860152608085015260a084015260c083015260e0820152f35b611078565b50503461025c578160031936011261025c576020905160068152f35b905034610318576020366003190112610318576020928291358152600c845220549051908152f35b50503461025c578160031936011261025c576020906010549051908152f35b82843461044957602036600319011261044957506105b3606092356120b7565b91929081519384526020840152820152f35b905034610318576020366003190112610318576020928291358152600b845220549051908152f35b905034610318576020366003190112610318578160209360ff92358152600e855220541690519015158152f35b50503461025c578160031936011261025c5760015490516001600160a01b039091168152602090f35b90503461031857816003193601126103185735906024358015908115809103610314577fe7a2d8a4d138bc1126446de0c5b4de71223d1a88ee07c172f1e18d442e92fa24926020926106a060018060a01b036001541633146122cd565b858752600e84528187209060ff19918281541660ff86161790556106c8575b5051908152a280f35b600f8452818720908154169055386106bf565b50503461025c578160031936011261025c5760209051603e8152f35b83903461025c57602036600319011261025c57610714903561139e565b80f35b50503461025c578160031936011261025c57906101009160105491601154914760055490600654926007549460018060a01b0390541695815197885260208801528601526060850152608084015260a08301523060c083015260e0820152f35b905034610318576020366003190112610318578160209360ff92358152600885522054169051908152f35b50503461025c578160031936011261025c576020905160328152f35b905034610318576020366003190112610318578254825163fd5993cf60e01b8152823592810192909252610100908190839060249082906001600160a01b03165afa9182156108645791610822918560ff9460209792829461082a575b5050612305565b915191168152f35b9150915061084d9250803d1061085d575b61084581836112ec565b81019061130e565b505094505091905090388061081b565b503d61083b565b50505051903d90823e3d90fd5b91905034610318576020366003190112610318578135808452600860205260ff8285205416926108a0846123a9565b855484516238a78560e71b8152838101859052610120916001600160a01b03168282602481845afa918215610a3e579086949392918a92610a48575b50875196879663fd5993cf60e01b88528701528560246101009788935afa908115610a3e5791889493918a9360209b988592610a10575b5061092890600388036109ea576032906110b7565b92858552600d8c5289852054948585116000146109e35761094986866110ea565b965b8587101598896109d9575b6109a59392916109839180156109d15761097090826124bc565b905b83528f600c90528d83205490611094565b9050878111156109cb575086935b808c519e8f9e8f90815201528c0190611017565b988a01526060890152608088015260a087015260c0860152151560e08501528301520390f35b93610991565b508290610972565b8615159950610956565b809661094b565b600288036109fb57600a5b906110b7565b60018803610a0a5760026109f5565b856109f5565b6109289950610a2d919250883d8a1161085d5761084581836112ec565b505050509a92915050989190610913565b87513d8b823e3d90fd5b610a69919250833d8511610a79575b610a6181836112ec565b810190611b0c565b97505050505050505090386108dc565b503d610a57565b905034610318576020366003190112610318578160209360ff92358152600f855220541690519015158152f35b828434610449576020366003190112610449578235918183809352600860205260ff82822054169460018060a01b0382541683519586926238a78560e71b84528301528160246101209788935afa948515610bd0578295610ba2575b505061044592939460038114600014610b7c57506032935b610b2b85876110b7565b908252600d602052828220549182821115610b765750610b4b82826110ea565b925b51958695869192608093969594919660a084019784526020840152604083015260608201520152565b92610b4d565b60028103610b8e5750600a5b93610b21565b600103610b9c576002610b88565b80610b88565b6104459495509081610bbf92903d10610a7957610a6181836112ec565b975050505050505050939286610b09565b83513d84823e3d90fd5b50503461025c578160031936011261025c5760209051600e8152f35b50503461025c578160031936011261025c576020906014549051908152f35b83903461025c57602036600319011261025c576107149035611c1a565b50503461025c578160031936011261025c57602090516107fe8152f35b9050346103185760203660031901126103185760209282913581526009845220549051908152f35b50503461025c578160031936011261025c576020905160058152f35b8284346104495760203660031901126104495750610cb36020923561223d565b90519015158152f35b50503461025c578160031936011261025c576020906003549051908152f35b919050346103185760203660031901126103185781356001600160a01b03818116939184900361031457610d14906001541633146122cd565b8215610d58575082546001600160a01b03191682178355519081527ff323b6ee4cb868142f56cc40e922c49e6cc2ce0c445cd9c9d573ef585ce6903590602090a180f35b6020606492519162461bcd60e51b8352820152600b60248201526a5a65726f20656e67696e6560a81b6044820152fd5b91503461101357602036600319011261101357835463fd5993cf60e01b83528135828401819052949293602493916101009081908790879082906001600160a01b03165afa96871561100757839084978599610fd9575b508452600860205260ff838520541697600688101580610fce575b80610fc3575b600a8910159081610fb7575b81610faa575b600e8a10159283610f9e575b83610f91575b60028510610f6d5787945b60058110610f495788975b600a8210610f2557895b603e8410610f0157809b5b6107fe808610610edf5750819d5b617ffe91828710610eba575050509c5b81519e8f5260208f01528d015260608c0152151560808b0152151560a08a0152151560c089015260e08801528601526101208501526101408401526101608301526101808201526101a090f35b8683039391928411610ecf575050509c610e6d565b634e487b7160e01b825260119052fd5b858103908111610eef579d610e5d565b634e487b7160e01b8352601182528e83fd5b83603e03603e8111610f13579b610e4f565b634e487b7160e01b825260118d528d82fd5b81600a03600a8111610f375799610e44565b634e487b7160e01b8b5260118c528c8bfd5b8060050360058111610f5b5797610e3a565b634e487b7160e01b8a5260118b528b8afd5b8460020360028111610f7f5794610e2f565b634e487b7160e01b895260118a528a89fd5b617ffe8110159350610e24565b600a8510159350610e1e565b6107fe8310159150610e12565b60058410159150610e0c565b50603e811015610e00565b506002821015610dfa565b9150975081610ff59297503d881161085d5761084581836112ec565b50509994505091905090969738610ddf565b505051903d90823e3d90fd5b8380fd5b919082519283825260005b848110611043575050826000602080949584010152601f8019910116010190565b602081830181015184830182015201611022565b34611073576000366003190112611073576020604051600a8152f35b600080fd5b3461107357600036600319011261107357602060405160028152f35b919082018092116110a157565b634e487b7160e01b600052601160045260246000fd5b818102929181159184041417156110a157565b81156110d4570490565b634e487b7160e01b600052601260045260246000fd5b919082039182116110a157565b34156112b85761110934601054611094565b601055610bb880340290348204036110a15761271080910490610dac80340290348204036110a157046111458161114084346110ea565b6110ea565b600554909190156112a457670de0b6b3a76400008084029084820414841517156110a15761117961118191600554906110ca565b600254611094565b6002555b6006541561129057670de0b6b3a76400008082029082820414821517156110a1576111b66111be91600654906110ca565b600354611094565b6003555b6007541561125757670de0b6b3a76400008083029083820414831517156110a1577fb62a3ae39b7c63a47597dbdc4a7830dfdcd4b56e7d01ff123c74a6e9f4218a409361122061121861125293600754906110ca565b600454611094565b6004555b604051938493429234869192608093969594919660a084019784526020840152604083015260608201520152565b0390a1565b6112527fb62a3ae39b7c63a47597dbdc4a7830dfdcd4b56e7d01ff123c74a6e9f4218a409361128884601454611094565b601455611224565b61129c81601354611094565b6013556111c2565b6112b083601254611094565b601255611185565b565b6040810190811067ffffffffffffffff8211176112d657604052565b634e487b7160e01b600052604160045260246000fd5b90601f8019910116810190811067ffffffffffffffff8211176112d657604052565b9190826101009103126110735781519160208101519160408201519160608101519160808201519160a08101519160e060c083015192015180151581036110735790565b1561135957565b60405162461bcd60e51b815260206004820152601d60248201527f4e6f6465206e6f74207265676973746572656420696e20656e67696e650000006044820152606490fd5b6000818152602091600e835260409160ff8382205416611879578054835163fd5993cf60e01b81526004808201859052602493909290916101009182908290879082906001600160a01b03165afa90811561186f5761141492849283928392839261183d575b505061140f90611352565b612305565b918482526008875260ff86832054169160ff8416948386106118045785156117b1578386146117a657879284159586156116e7575b600188149081806116dd575b806116d2575b61167f575b60028914928380611675575b8061166a575b611615575b60038a1494858061160b575b80611600575b611579575b50509160809593916114c37fed863f1fe7d70fa73dcfcaedf220bc317eba3d4506f9fb66c5c6d101122056c29896948c612529565b611566575b611553575b611540575b87815260088a528181208760ff19825416179055600c8a5220548751918783528983015285888301526060820152a161150c575b50505050565b7f922826bb93b9b0d12d35db7d85d122659617854fa803d818a2aa991dc1af47cc938351928352820152a138808080611506565b61154b60075461258b565b6007556114d2565b61155e60065461258b565b6006556114cd565b61157160055461258b565b6005556114c8565b909192939495965060145490670de0b6b3a7640000918281029281840414901517156115ef5750926114c37fed863f1fe7d70fa73dcfcaedf220bc317eba3d4506f9fb66c5c6d101122056c2989693836115da8f98959760809b9854611094565b9055856014559294969850819395975061148e565b634e487b7160e01b88526011835287fd5b506014541515611489565b5060075415611483565b90919293949550601354670de0b6b3a764000090818102918183041490151715611658579061164c8c979695949392600354611094565b60035585601355611477565b634e487b7160e01b8752601182528587fd5b506013541515611472565b506006541561146c565b909192939450601254670de0b6b3a7640000908181029181830414901517156116c057906116b48b9695949392600254611094565b60025584601255611460565b634e487b7160e01b8652601184528486fd5b50601254151561145b565b5060055415611455565b6116f1868a6124bc565b80611789575b50611702868a612529565b600186148061177e575b61176b575b6002861480611760575b61174d575b6003861480611742575b156114495761173a60075461259a565b600755611449565b50600754151561172a565b61175860065461259a565b600655611720565b50600654151561171b565b61177660055461259a565b600555611711565b50600554151561170c565b898552600c8c5261179e868620918254611094565b9055386116f7565b505050505050505050565b8260296084928b8b519362461bcd60e51b85528401528201527f446f6573206e6f74206d65657420706f6f6c207175616c696669636174696f6e60448201526820637269746572696160b81b6064820152fd5b8260156064928b8b519362461bcd60e51b85528401528201527410d85b9b9bdd08191bdddb99dc985919481c1bdbdb605a1b6044820152fd5b9150915061140f935061185c9250803d1061085d5761084581836112ec565b9794505093919450509291939038611404565b87513d85823e3d90fd5b9392600f815260ff8386205416611ac9578454835163fd5993cf60e01b81526004808201859052969161010091908290829060249082906001600160a01b03165afa918215611abf57906118d692918492611a9a575b5050611352565b6005541580611a8f575b611a5a575b60025483825260098352848220556118fe60055461258b565b6005556006541580611a4f575b611a1a575b600354838252600a83528482205561192960065461258b565b6006556007541580611a0f575b61199a575b908360ff927f922826bb93b9b0d12d35db7d85d122659617854fa803d818a2aa991dc1af47cc969754858252600b84528282205561197a60075461258b565b600755848152600f835220600183198254161790558351928352820152a1565b601454670de0b6b3a7640000908181029181830414901517156119fc5760ff9291876119ea87937f922826bb93b9b0d12d35db7d85d122659617854fa803d818a2aa991dc1af47cc999a54611094565b8155816014559796509192505061193b565b634e487b7160e01b825260118752602482fd5b506014541515611936565b601354670de0b6b3a7640000908181029181830414901517156119fc57611a4390600354611094565b60035580601355611910565b50601354151561190b565b601254670de0b6b3a7640000908181029181830414901517156119fc57611a8390600254611094565b600255806012556118e5565b5060125415156118e0565b611ab09250803d1061085d5761084581836112ec565b965050505050505038806118cf565b86513d85823e3d90fd5b60649083519062461bcd60e51b82526004820152601d60248201527f5375706572206e6f646520616c726561647920726567697374657265640000006044820152fd5b90816101209103126110735780516001600160a01b0381168103611073579160208201519160408101519160608201519160808101519160a08201519160c08101519161010060e083015192015190565b15611b6457565b60405162461bcd60e51b815260206004820152601060248201526f4e6f7468696e6720746f20636c61696d60801b6044820152606490fd5b3d15611bd7573d9067ffffffffffffffff82116112d65760405191611bcb601f8201601f1916602001846112ec565b82523d6000602084013e565b606090565b15611be357565b60405162461bcd60e51b815260206004820152600f60248201526e151c985b9cd9995c8819985a5b1959608a1b6044820152606490fd5b9060018060a01b03600092818454169360409485518080956238a78560e71b8252600493868584015261012097889160249485915afa9283156120ad578597869461207e575b5050861691821561204b5782330361201757858552602093600e855260ff8a87205416611eff578686526008855260ff8a87205416918215611ea857611cb09060038403611e91576032906110b7565b928315611e4f57878752600d8652838b8820541015611e1657505093808080611d5b96867f24b5efa61dd1cfc659205a97fb8ed868f3cb8c81922bab2b96423e5de1de2cb79c9d978b611db498611d2a8d611d196112529f611d1290866124bc565b9185612529565b838852600c87528c88205490611094565b94611d36861515611b5d565b828752600d8152611d4a8c882054836110ea565b80871115611e0b579c8d80976110ea565b838852600c82528c882055600d81528b8720611d78878254611094565b9055611d8686601154611094565b601155828752600d81528b87205491821015611dda575b50505050620186a0f1611dae611b9c565b50611bdc565b519283526001600160a01b03909316602083015260408201929092529081906060820190565b7fc323b5b9d7dabe051efc719f5ef92f41dd1966ccf2d6d1a834e0a648ee35f622918c51908152a3808b3880611d9d565b50859c8d80976110ea565b8a5162461bcd60e51b81529182018690526014908201527311585c9b9a5b99dcc818d85c081c995858da195960621b6044820152606490fd5b8a5162461bcd60e51b81529182018690526018908201527f4e6f20636f6e747269627574696f6e207265636f7264656400000000000000006044820152606490fd5b60028403611ea157600a906110b7565b60026109f5565b8a5162461bcd60e51b8152808301879052602c818601527f4e6f6465206e6f7420696e206120706f6f6c202d2063616c6c2072656769737460448201526b195c939bd91948199a5c9cdd60a21b6064820152608490fd5b92919050600f8495945260ff898520541615611fd6575082808061125296957f24b5efa61dd1cfc659205a97fb8ed868f3cb8c81922bab2b96423e5de1de2cb79a9b95611db495600c611f83611f738d611f67611f6d611f5e83612449565b611f6784612472565b90611094565b91612497565b8d8652828c528a86205490611094565b998a93611f91851515611b5d565b8d600254908752600983528b872055600354600a83528b87205554600b82528a862055528288812055611fc682601154611094565b601155620186a0f1611dae611b9c565b82601d606492878c519362461bcd60e51b85528401528201527f5375706572206e6f6465206e6f742079657420726567697374657265640000006044820152fd5b885162461bcd60e51b8152602081860152600f818401526e139bdd081b9bd919481dd85b1b195d608a1b6044820152606490fd5b885162461bcd60e51b8152602081860152600e818401526d125b9d985b1a59081dd85b1b195d60921b6044820152606490fd5b61209a9398508091929450903d10610a7957610a6181836112ec565b9c97965050505050505095913880611c60565b89513d87823e3d90fd5b906000828152602091600e835260409360ff85842054168061222c575b6121ec57808352600884528483205460ff16948515801594906121e5576120fb87846124bc565b955b8697848352600c8252612114848420548099611094565b96612121575b5050505050565b825484516238a78560e71b81526004810187905261012092918390829060249082906001600160a01b03165afa9283156121db579285949261217f92600d9561218b9a9998936121b3575b5050600381036121a457506032906110b7565b948352522054906110ea565b80831161219c575b8080808061211a565b915038612193565b600203611ea157600a906110b7565b6121ca929350803d10610a7957610a6181836112ec565b97505050505050505090388061216c565b86513d87823e3d90fd5b80956120fd565b92600c9061221561220c6122038798969598612449565b611f6788612472565b611f6787612497565b948352522054916122268383611094565b91929190565b50600f845260ff85842054166120d4565b6000818152600860205260ff60408220541680156122c75781546040516238a78560e71b81526004810185905261012092918390829060249082906001600160a01b03165afa9283156122bc57918493916122ad93604096936121b3575050600381036121a457506032906110b7565b928152600d6020522054101590565b6040513d86823e3d90fd5b50905090565b156122d457565b60405162461bcd60e51b81526020600482015260096024820152682737ba1037bbb732b960b91b6044820152606490fd5b919091600e8110158061239e575b80612392575b61238a57600a8110158061237f575b80612373575b61236b5760061115918261235f575b5081612353575b5061234e57600090565b600190565b603e9150101538612344565b6002111591503861233d565b505050600290565b506107fe82101561232e565b506005831015612328565b505050600390565b50617ffe821015612319565b50600a831015612313565b60ff16600381146124285760028114612405576001146123e3576040516123cf816112ba565b60048152634e6f6e6560e01b602082015290565b6040516123ef816112ba565b600681526542726f6e7a6560d01b602082015290565b50604051612412816112ba565b600681526529b4b63b32b960d11b602082015290565b50604051612435816112ba565b600481526311dbdb1960e21b602082015290565b61246e670de0b6b3a764000091600254906000526009602052604060002054906110ea565b0490565b61246e670de0b6b3a76400009160035490600052600a602052604060002054906110ea565b61246e670de0b6b3a76400009160045490600052600b602052604060002054906110ea565b9060ff166001811461250357600281146124dd576003146124975750600090565b5061246e670de0b6b3a76400009160035490600052600a602052604060002054906110ea565b5061246e670de0b6b3a764000091600254906000526009602052604060002054906110ea565b9060ff6003911660018114612574575b6002811461255e575b1461254a5750565b60045490600052600b602052604060002055565b815483600052600a602052604060002055612542565b600254836000526009602052604060002055612539565b60001981146110a15760010190565b80156110a157600019019056fea264697066735822122078093cbcb318079db1e79f46543f6a1ddf340477e2dca12447fbeed5c93ab56464736f6c63430008140033",
  "linkReferences": {},
  "deployedLinkReferences": {}
}